{
  "contractName": "Casa",
  "abi": [
    {
      "anonymous": false,
      "inputs": [
        {
          "indexed": true,
          "internalType": "address",
          "name": "owner",
          "type": "address"
        },
        {
          "indexed": true,
          "internalType": "address",
          "name": "approved",
          "type": "address"
        },
        {
          "indexed": true,
          "internalType": "uint256",
          "name": "tokenId",
          "type": "uint256"
        }
      ],
      "name": "Approval",
      "type": "event"
    },
    {
      "anonymous": false,
      "inputs": [
        {
          "indexed": true,
          "internalType": "address",
          "name": "owner",
          "type": "address"
        },
        {
          "indexed": true,
          "internalType": "address",
          "name": "operator",
          "type": "address"
        },
        {
          "indexed": false,
          "internalType": "bool",
          "name": "approved",
          "type": "bool"
        }
      ],
      "name": "ApprovalForAll",
      "type": "event"
    },
    {
      "anonymous": false,
      "inputs": [
        {
          "indexed": true,
          "internalType": "address",
          "name": "previousOwner",
          "type": "address"
        },
        {
          "indexed": true,
          "internalType": "address",
          "name": "newOwner",
          "type": "address"
        }
      ],
      "name": "OwnershipTransferred",
      "type": "event"
    },
    {
      "anonymous": false,
      "inputs": [
        {
          "indexed": true,
          "internalType": "address",
          "name": "owner",
          "type": "address"
        }
      ],
      "name": "Paused",
      "type": "event"
    },
    {
      "anonymous": false,
      "inputs": [
        {
          "indexed": true,
          "internalType": "address",
          "name": "from",
          "type": "address"
        },
        {
          "indexed": true,
          "internalType": "address",
          "name": "to",
          "type": "address"
        },
        {
          "indexed": true,
          "internalType": "uint256",
          "name": "tokenId",
          "type": "uint256"
        }
      ],
      "name": "Transfer",
      "type": "event"
    },
    {
      "anonymous": false,
      "inputs": [
        {
          "indexed": true,
          "internalType": "address",
          "name": "owner",
          "type": "address"
        }
      ],
      "name": "Unpaused",
      "type": "event"
    },
    {
      "inputs": [
        {
          "internalType": "bytes32",
          "name": "_myid",
          "type": "bytes32"
        },
        {
          "internalType": "string",
          "name": "_result",
          "type": "string"
        }
      ],
      "name": "__callback",
      "outputs": [],
      "stateMutability": "nonpayable",
      "type": "function"
    },
    {
      "inputs": [
        {
          "internalType": "bytes32",
          "name": "_myid",
          "type": "bytes32"
        },
        {
          "internalType": "string",
          "name": "_result",
          "type": "string"
        },
        {
          "internalType": "bytes",
          "name": "_proof",
          "type": "bytes"
        }
      ],
      "name": "__callback",
      "outputs": [],
      "stateMutability": "nonpayable",
      "type": "function"
    },
    {
      "inputs": [
        {
          "internalType": "address",
          "name": "to",
          "type": "address"
        },
        {
          "internalType": "uint256",
          "name": "tokenId",
          "type": "uint256"
        }
      ],
      "name": "approve",
      "outputs": [],
      "stateMutability": "nonpayable",
      "type": "function"
    },
    {
      "inputs": [
        {
          "internalType": "address",
          "name": "owner",
          "type": "address"
        }
      ],
      "name": "balanceOf",
      "outputs": [
        {
          "internalType": "uint256",
          "name": "",
          "type": "uint256"
        }
      ],
      "stateMutability": "view",
      "type": "function",
      "constant": true
    },
    {
      "inputs": [
        {
          "internalType": "uint256",
          "name": "tokenId",
          "type": "uint256"
        }
      ],
      "name": "getApproved",
      "outputs": [
        {
          "internalType": "address",
          "name": "",
          "type": "address"
        }
      ],
      "stateMutability": "view",
      "type": "function",
      "constant": true
    },
    {
      "inputs": [],
      "name": "getBaseTokenURI",
      "outputs": [
        {
          "internalType": "string",
          "name": "",
          "type": "string"
        }
      ],
      "stateMutability": "view",
      "type": "function",
      "constant": true
    },
    {
      "inputs": [],
      "name": "getName",
      "outputs": [
        {
          "internalType": "string",
          "name": "",
          "type": "string"
        }
      ],
      "stateMutability": "view",
      "type": "function",
      "constant": true
    },
    {
      "inputs": [],
      "name": "getSymbol",
      "outputs": [
        {
          "internalType": "string",
          "name": "",
          "type": "string"
        }
      ],
      "stateMutability": "view",
      "type": "function",
      "constant": true
    },
    {
      "inputs": [
        {
          "internalType": "address",
          "name": "owner",
          "type": "address"
        },
        {
          "internalType": "address",
          "name": "operator",
          "type": "address"
        }
      ],
      "name": "isApprovedForAll",
      "outputs": [
        {
          "internalType": "bool",
          "name": "",
          "type": "bool"
        }
      ],
      "stateMutability": "view",
      "type": "function",
      "constant": true
    },
    {
      "inputs": [],
      "name": "owner",
      "outputs": [
        {
          "internalType": "address",
          "name": "",
          "type": "address"
        }
      ],
      "stateMutability": "view",
      "type": "function",
      "constant": true
    },
    {
      "inputs": [
        {
          "internalType": "uint256",
          "name": "tokenId",
          "type": "uint256"
        }
      ],
      "name": "ownerOf",
      "outputs": [
        {
          "internalType": "address",
          "name": "",
          "type": "address"
        }
      ],
      "stateMutability": "view",
      "type": "function",
      "constant": true
    },
    {
      "inputs": [
        {
          "internalType": "address",
          "name": "from",
          "type": "address"
        },
        {
          "internalType": "address",
          "name": "to",
          "type": "address"
        },
        {
          "internalType": "uint256",
          "name": "tokenId",
          "type": "uint256"
        }
      ],
      "name": "safeTransferFrom",
      "outputs": [],
      "stateMutability": "nonpayable",
      "type": "function"
    },
    {
      "inputs": [
        {
          "internalType": "address",
          "name": "from",
          "type": "address"
        },
        {
          "internalType": "address",
          "name": "to",
          "type": "address"
        },
        {
          "internalType": "uint256",
          "name": "tokenId",
          "type": "uint256"
        },
        {
          "internalType": "bytes",
          "name": "_data",
          "type": "bytes"
        }
      ],
      "name": "safeTransferFrom",
      "outputs": [],
      "stateMutability": "nonpayable",
      "type": "function"
    },
    {
      "inputs": [
        {
          "internalType": "address",
          "name": "to",
          "type": "address"
        },
        {
          "internalType": "bool",
          "name": "approved",
          "type": "bool"
        }
      ],
      "name": "setApprovalForAll",
      "outputs": [],
      "stateMutability": "nonpayable",
      "type": "function"
    },
    {
      "inputs": [
        {
          "internalType": "bool",
          "name": "pause",
          "type": "bool"
        }
      ],
      "name": "setPaused",
      "outputs": [
        {
          "internalType": "bool",
          "name": "",
          "type": "bool"
        }
      ],
      "stateMutability": "nonpayable",
      "type": "function"
    },
    {
      "inputs": [
        {
          "internalType": "bytes4",
          "name": "interfaceId",
          "type": "bytes4"
        }
      ],
      "name": "supportsInterface",
      "outputs": [
        {
          "internalType": "bool",
          "name": "",
          "type": "bool"
        }
      ],
      "stateMutability": "view",
      "type": "function",
      "constant": true
    },
    {
      "inputs": [
        {
          "internalType": "uint256",
          "name": "index",
          "type": "uint256"
        }
      ],
      "name": "tokenByIndex",
      "outputs": [
        {
          "internalType": "uint256",
          "name": "",
          "type": "uint256"
        }
      ],
      "stateMutability": "view",
      "type": "function",
      "constant": true
    },
    {
      "inputs": [
        {
          "internalType": "address",
          "name": "owner",
          "type": "address"
        },
        {
          "internalType": "uint256",
          "name": "index",
          "type": "uint256"
        }
      ],
      "name": "tokenOfOwnerByIndex",
      "outputs": [
        {
          "internalType": "uint256",
          "name": "",
          "type": "uint256"
        }
      ],
      "stateMutability": "view",
      "type": "function",
      "constant": true
    },
    {
      "inputs": [
        {
          "internalType": "uint256",
          "name": "tokenId",
          "type": "uint256"
        }
      ],
      "name": "tokenURI",
      "outputs": [
        {
          "internalType": "string",
          "name": "",
          "type": "string"
        }
      ],
      "stateMutability": "view",
      "type": "function",
      "constant": true
    },
    {
      "inputs": [],
      "name": "totalSupply",
      "outputs": [
        {
          "internalType": "uint256",
          "name": "",
          "type": "uint256"
        }
      ],
      "stateMutability": "view",
      "type": "function",
      "constant": true
    },
    {
      "inputs": [
        {
          "internalType": "address",
          "name": "from",
          "type": "address"
        },
        {
          "internalType": "address",
          "name": "to",
          "type": "address"
        },
        {
          "internalType": "uint256",
          "name": "tokenId",
          "type": "uint256"
        }
      ],
      "name": "transferFrom",
      "outputs": [],
      "stateMutability": "nonpayable",
      "type": "function"
    },
    {
      "inputs": [
        {
          "internalType": "address",
          "name": "newOwner",
          "type": "address"
        }
      ],
      "name": "transferOwnership",
      "outputs": [],
      "stateMutability": "nonpayable",
      "type": "function"
    },
    {
      "inputs": [
        {
          "internalType": "address",
          "name": "to",
          "type": "address"
        },
        {
          "internalType": "uint256",
          "name": "tokenId",
          "type": "uint256"
        }
      ],
      "name": "mint",
      "outputs": [
        {
          "internalType": "bool",
          "name": "",
          "type": "bool"
        }
      ],
      "stateMutability": "nonpayable",
      "type": "function"
    }
  ],
  "bytecode": "0x60806040523480156200001157600080fd5b506040518060400160405280600481526020017f43617361000000000000000000000000000000000000000000000000000000008152506040518060400160405280600481526020017f43415341000000000000000000000000000000000000000000000000000000008152506040518060600160405280603e8152602001620038ba603e9139620000a9336200016f60201b60201c565b620000bb60006200025360201b60201c565b620000d36301ffc9a760e01b6200031360201b60201c565b620000eb6380ac58cd60e01b6200031360201b60201c565b6200010363780e9d6360e01b6200031360201b60201c565b82600f90805190602001906200011b929190620003b3565b50816010908051906020019062000134929190620003b3565b5080601190805190602001906200014d929190620003b3565b5062000166635b5e139f60e01b6200031360201b60201c565b505050620004c8565b60008060009054906101000a900473ffffffffffffffffffffffffffffffffffffffff169050816000806101000a81548173ffffffffffffffffffffffffffffffffffffffff021916908373ffffffffffffffffffffffffffffffffffffffff16021790555060008054906101000a900473ffffffffffffffffffffffffffffffffffffffff1673ffffffffffffffffffffffffffffffffffffffff168173ffffffffffffffffffffffffffffffffffffffff167f8be0079c531659141344cd1fd0a4f28419497f9722a3daafe3b4186f6b6457e060405160405180910390a35050565b80600060146101000a81548160ff021916908315150217905550600060149054906101000a900460ff1615620002cc573373ffffffffffffffffffffffffffffffffffffffff167f62e78cea01bee320cd4e420270b5ea74000d11b0c9f74754ebdbfc544b05a25860405160405180910390a262000310565b3373ffffffffffffffffffffffffffffffffffffffff167f5db9ee0a495bf2e6ff9c91a7834c1ba4fdd244a5e8aa4e537bd38aeae4b073aa60405160405180910390a25b50565b63ffffffff60e01b817bffffffffffffffffffffffffffffffffffffffffffffffffffffffff191614156200034757600080fd5b6001806000837bffffffffffffffffffffffffffffffffffffffffffffffffffffffff19167bffffffffffffffffffffffffffffffffffffffffffffffffffffffff1916815260200190815260200160002060006101000a81548160ff02191690831515021790555050565b828054620003c19062000463565b90600052602060002090601f016020900481019282620003e5576000855562000431565b82601f106200040057805160ff191683800117855562000431565b8280016001018555821562000431579182015b828111156200043057825182559160200191906001019062000413565b5b50905062000440919062000444565b5090565b5b808211156200045f57600081600090555060010162000445565b5090565b600060028204905060018216806200047c57607f821691505b6020821081141562000493576200049262000499565b5b50919050565b7f4e487b7100000000000000000000000000000000000000000000000000000000600052602260045260246000fd5b6133e280620004d86000396000f3fe608060405234801561001057600080fd5b506004361061014d5760003560e01c806340c10f19116100c3578063a22cb4651161007c578063a22cb465146103d6578063b88d4fde146103f2578063bdc32be01461040e578063c87b56dd1461042c578063e985e9c51461045c578063f2fde38b1461048c5761014d565b806340c10f19146102dc57806342842e0e1461030c5780634f6ccce7146103285780636352211e1461035857806370a08231146103885780638da5cb5b146103b85761014d565b806317d7de7c1161011557806317d7de7c1461021c57806318160ddd1461023a57806323b872dd1461025857806327dc297e146102745780632f745c591461029057806338bbfa50146102c05761014d565b806301ffc9a714610152578063081812fc14610182578063095ea7b3146101b257806315070401146101ce57806316c38b3c146101ec575b600080fd5b61016c600480360381019061016791906127b8565b6104a8565b6040516101799190612aa3565b60405180910390f35b61019c60048036038101906101979190612812565b610510565b6040516101a99190612a3c565b60405180910390f35b6101cc60048036038101906101c79190612664565b610595565b005b6101d661069f565b6040516101e39190612abe565b60405180910390f35b610206600480360381019061020191906126a4565b610731565b6040516102139190612aa3565b60405180910390f35b6102246107e2565b6040516102319190612abe565b60405180910390f35b610242610874565b60405161024f9190612c20565b60405180910390f35b610272600480360381019061026d919061254e565b610881565b005b61028e600480360381019061028991906126d1565b6108a4565b005b6102aa60048036038101906102a59190612664565b610900565b6040516102b79190612c20565b60405180910390f35b6102da60048036038101906102d5919061272d565b61097a565b005b6102f660048036038101906102f19190612664565b61097f565b6040516103039190612aa3565b60405180910390f35b6103266004803603810190610321919061254e565b610a2d565b005b610342600480360381019061033d9190612812565b610a4d565b60405161034f9190612c20565b60405180910390f35b610372600480360381019061036d9190612812565b610a88565b60405161037f9190612a3c565b60405180910390f35b6103a2600480360381019061039d91906124e1565b610a9a565b6040516103af9190612c20565b60405180910390f35b6103c0610b59565b6040516103cd9190612a3c565b60405180910390f35b6103f060048036038101906103eb9190612624565b610b82565b005b61040c600480360381019061040791906125a1565b610cb8565b005b610416610cde565b6040516104239190612abe565b60405180910390f35b61044660048036038101906104419190612812565b610d70565b6040516104539190612abe565b60405180910390f35b6104766004803603810190610471919061250e565b610e27565b6040516104839190612aa3565b60405180910390f35b6104a660048036038101906104a191906124e1565b610ebb565b005b600060016000837bffffffffffffffffffffffffffffffffffffffffffffffffffffffff19167bffffffffffffffffffffffffffffffffffffffffffffffffffffffff1916815260200190815260200160002060009054906101000a900460ff169050919050565b600061051b82610fc5565b61055a576040517f08c379a000000000000000000000000000000000000000000000000000000000815260040161055190612be0565b60405180910390fd5b6003600083815260200190815260200160002060009054906101000a900473ffffffffffffffffffffffffffffffffffffffff169050919050565b60006105a082611037565b90508073ffffffffffffffffffffffffffffffffffffffff168373ffffffffffffffffffffffffffffffffffffffff161415610611576040517f08c379a000000000000000000000000000000000000000000000000000000000815260040161060890612b00565b60405180910390fd5b8073ffffffffffffffffffffffffffffffffffffffff163373ffffffffffffffffffffffffffffffffffffffff16148061065157506106508133610e27565b5b610690576040517f08c379a000000000000000000000000000000000000000000000000000000000815260040161068790612ba0565b60405180910390fd5b61069a8383611074565b505050565b6060601080546106ae90612e9f565b80601f01602080910402602001604051908101604052809291908181526020018280546106da90612e9f565b80156107275780601f106106fc57610100808354040283529160200191610727565b820191906000526020600020905b81548152906001019060200180831161070a57829003601f168201915b5050505050905090565b60008060009054906101000a900473ffffffffffffffffffffffffffffffffffffffff1673ffffffffffffffffffffffffffffffffffffffff163373ffffffffffffffffffffffffffffffffffffffff16146107c2576040517f08c379a00000000000000000000000000000000000000000000000000000000081526004016107b990612c00565b60405180910390fd5b6107cb8261112d565b600060149054906101000a900460ff169050919050565b6060600f80546107f190612e9f565b80601f016020809104026020016040519081016040528092919081815260200182805461081d90612e9f565b801561086a5780601f1061083f5761010080835404028352916020019161086a565b820191906000526020600020905b81548152906001019060200180831161084d57829003601f168201915b5050505050905090565b6000600880549050905090565b61088b33826111eb565b61089457600080fd5b61089f838383611280565b505050565b6108fc8282600067ffffffffffffffff8111156108c4576108c3613067565b5b6040519080825280601f01601f1916602001820160405280156108f65781602001600182028036833780820191505090505b5061097a565b5050565b600061090b83610a9a565b821061091657600080fd5b600660008473ffffffffffffffffffffffffffffffffffffffff1673ffffffffffffffffffffffffffffffffffffffff168152602001908152602001600020828154811061096757610966613038565b5b9060005260206000200154905092915050565b505050565b60008060009054906101000a900473ffffffffffffffffffffffffffffffffffffffff1673ffffffffffffffffffffffffffffffffffffffff163373ffffffffffffffffffffffffffffffffffffffff1614610a10576040517f08c379a0000000000000000000000000000000000000000000000000000000008152600401610a0790612c00565b60405180910390fd5b610a1a83836112a4565b610a23826112c5565b6001905092915050565b610a4883838360405180602001604052806000815250610cb8565b505050565b6000610a57610874565b8210610a6257600080fd5b60088281548110610a7657610a75613038565b5b90600052602060002001549050919050565b6000610a9382611037565b9050919050565b60008073ffffffffffffffffffffffffffffffffffffffff163373ffffffffffffffffffffffffffffffffffffffff161415610b0b576040517f08c379a0000000000000000000000000000000000000000000000000000000008152600401610b0290612b40565b60405180910390fd5b610b52600460008473ffffffffffffffffffffffffffffffffffffffff1673ffffffffffffffffffffffffffffffffffffffff16815260200190815260200160002061139d565b9050919050565b60008060009054906101000a900473ffffffffffffffffffffffffffffffffffffffff16905090565b3373ffffffffffffffffffffffffffffffffffffffff168273ffffffffffffffffffffffffffffffffffffffff161415610bbb57600080fd5b80600560003373ffffffffffffffffffffffffffffffffffffffff1673ffffffffffffffffffffffffffffffffffffffff16815260200190815260200160002060008473ffffffffffffffffffffffffffffffffffffffff1673ffffffffffffffffffffffffffffffffffffffff16815260200190815260200160002060006101000a81548160ff0219169083151502179055508173ffffffffffffffffffffffffffffffffffffffff163373ffffffffffffffffffffffffffffffffffffffff167f17307eab39ab6107e8899845ad3d59bd9653f200f220920489ca2b5937696c3183604051610cac9190612aa3565b60405180910390a35050565b610cc3848484610881565b610ccf848484846113ab565b610cd857600080fd5b50505050565b606060118054610ced90612e9f565b80601f0160208091040260200160405190810160405280929190818152602001828054610d1990612e9f565b8015610d665780601f10610d3b57610100808354040283529160200191610d66565b820191906000526020600020905b815481529060010190602001808311610d4957829003601f168201915b5050505050905090565b6060610d7b82610fc5565b610d8457600080fd5b601260008381526020019081526020016000208054610da290612e9f565b80601f0160208091040260200160405190810160405280929190818152602001828054610dce90612e9f565b8015610e1b5780601f10610df057610100808354040283529160200191610e1b565b820191906000526020600020905b815481529060010190602001808311610dfe57829003601f168201915b50505050509050919050565b6000600560008473ffffffffffffffffffffffffffffffffffffffff1673ffffffffffffffffffffffffffffffffffffffff16815260200190815260200160002060008373ffffffffffffffffffffffffffffffffffffffff1673ffffffffffffffffffffffffffffffffffffffff16815260200190815260200160002060009054906101000a900460ff16905092915050565b60008054906101000a900473ffffffffffffffffffffffffffffffffffffffff1673ffffffffffffffffffffffffffffffffffffffff163373ffffffffffffffffffffffffffffffffffffffff1614610f49576040517f08c379a0000000000000000000000000000000000000000000000000000000008152600401610f4090612c00565b60405180910390fd5b600073ffffffffffffffffffffffffffffffffffffffff163373ffffffffffffffffffffffffffffffffffffffff161415610fb9576040517f08c379a0000000000000000000000000000000000000000000000000000000008152600401610fb090612b40565b60405180910390fd5b610fc2816114c2565b50565b6000806002600084815260200190815260200160002060009054906101000a900473ffffffffffffffffffffffffffffffffffffffff169050600073ffffffffffffffffffffffffffffffffffffffff168173ffffffffffffffffffffffffffffffffffffffff161415915050919050565b60006002600083815260200190815260200160002060009054906101000a900473ffffffffffffffffffffffffffffffffffffffff169050919050565b816003600083815260200190815260200160002060006101000a81548173ffffffffffffffffffffffffffffffffffffffff021916908373ffffffffffffffffffffffffffffffffffffffff160217905550808273ffffffffffffffffffffffffffffffffffffffff166110e783611037565b73ffffffffffffffffffffffffffffffffffffffff167f8c5be1e5ebec7d5bd14f71427d1e84f3dd0314c0f7b2291e5b200ac8c7c3b92560405160405180910390a45050565b80600060146101000a81548160ff021916908315150217905550600060149054906101000a900460ff16156111a4573373ffffffffffffffffffffffffffffffffffffffff167f62e78cea01bee320cd4e420270b5ea74000d11b0c9f74754ebdbfc544b05a25860405160405180910390a26111e8565b3373ffffffffffffffffffffffffffffffffffffffff167f5db9ee0a495bf2e6ff9c91a7834c1ba4fdd244a5e8aa4e537bd38aeae4b073aa60405160405180910390a25b50565b6000806111f783610a88565b90508073ffffffffffffffffffffffffffffffffffffffff168473ffffffffffffffffffffffffffffffffffffffff16148061126657508373ffffffffffffffffffffffffffffffffffffffff1661124e84610510565b73ffffffffffffffffffffffffffffffffffffffff16145b8061127757506112768185610e27565b5b91505092915050565b61128b8383836115a6565b61129583826117db565b61129f8282611999565b505050565b6112ae8282611a5d565b6112b88282611999565b6112c181611c0f565b5050565b6112ce81610fc5565b6112d757600080fd5b611373601180546112e790612e9f565b80601f016020809104026020016040519081016040528092919081815260200182805461131390612e9f565b80156113605780601f1061133557610100808354040283529160200191611360565b820191906000526020600020905b81548152906001019060200180831161134357829003601f168201915b505050505061136e83611c58565b611dc8565b6012600083815260200190815260200160002090805190602001906113999291906122e0565b5050565b600081600001549050919050565b60006113cc8473ffffffffffffffffffffffffffffffffffffffff16611e0c565b6113d957600190506114ba565b60008473ffffffffffffffffffffffffffffffffffffffff1663150b7a02338887876040518563ffffffff1660e01b815260040161141a9493929190612a57565b602060405180830381600087803b15801561143457600080fd5b505af1158015611448573d6000803e3d6000fd5b505050506040513d601f19601f8201168201806040525081019061146c91906127e5565b905063150b7a0260e01b7bffffffffffffffffffffffffffffffffffffffffffffffffffffffff1916817bffffffffffffffffffffffffffffffffffffffffffffffffffffffff1916149150505b949350505050565b60008060009054906101000a900473ffffffffffffffffffffffffffffffffffffffff169050816000806101000a81548173ffffffffffffffffffffffffffffffffffffffff021916908373ffffffffffffffffffffffffffffffffffffffff16021790555060008054906101000a900473ffffffffffffffffffffffffffffffffffffffff1673ffffffffffffffffffffffffffffffffffffffff168173ffffffffffffffffffffffffffffffffffffffff167f8be0079c531659141344cd1fd0a4f28419497f9722a3daafe3b4186f6b6457e060405160405180910390a35050565b60006115b182610a88565b90508073ffffffffffffffffffffffffffffffffffffffff168473ffffffffffffffffffffffffffffffffffffffff1614611621576040517f08c379a000000000000000000000000000000000000000000000000000000000815260040161161890612b80565b60405180910390fd5b600073ffffffffffffffffffffffffffffffffffffffff168373ffffffffffffffffffffffffffffffffffffffff161415611691576040517f08c379a000000000000000000000000000000000000000000000000000000000815260040161168890612b60565b60405180910390fd5b61169a82611e1f565b6116e1600460008373ffffffffffffffffffffffffffffffffffffffff1673ffffffffffffffffffffffffffffffffffffffff168152602001908152602001600020611edd565b611728600460008573ffffffffffffffffffffffffffffffffffffffff1673ffffffffffffffffffffffffffffffffffffffff168152602001908152602001600020611f39565b826002600084815260200190815260200160002060006101000a81548173ffffffffffffffffffffffffffffffffffffffff021916908373ffffffffffffffffffffffffffffffffffffffff160217905550818373ffffffffffffffffffffffffffffffffffffffff168573ffffffffffffffffffffffffffffffffffffffff167fddf252ad1be2c89b69c2b068fc378daa952ba7f163c4a11628f55a4df523b3ef60405160405180910390a450505050565b60006118336001600660008673ffffffffffffffffffffffffffffffffffffffff1673ffffffffffffffffffffffffffffffffffffffff16815260200190815260200160002080549050611f4f90919063ffffffff16565b905060006007600084815260200190815260200160002054905081811461192e576000600660008673ffffffffffffffffffffffffffffffffffffffff1673ffffffffffffffffffffffffffffffffffffffff16815260200190815260200160002083815481106118a7576118a6613038565b5b9060005260206000200154905080600660008773ffffffffffffffffffffffffffffffffffffffff1673ffffffffffffffffffffffffffffffffffffffff168152602001908152602001600020838154811061190657611905613038565b5b9060005260206000200181905550816007600083815260200190815260200160002081905550505b600660008573ffffffffffffffffffffffffffffffffffffffff1673ffffffffffffffffffffffffffffffffffffffff16815260200190815260200160002080548061197d5761197c613009565b5b6001900381819060005260206000200160009055905550505050565b600660008373ffffffffffffffffffffffffffffffffffffffff1673ffffffffffffffffffffffffffffffffffffffff168152602001908152602001600020805490506007600083815260200190815260200160002081905550600660008373ffffffffffffffffffffffffffffffffffffffff1673ffffffffffffffffffffffffffffffffffffffff1681526020019081526020016000208190806001815401808255809150506001900390600052602060002001600090919091909150555050565b611a6681610fc5565b15611aa6576040517f08c379a0000000000000000000000000000000000000000000000000000000008152600401611a9d90612bc0565b60405180910390fd5b600073ffffffffffffffffffffffffffffffffffffffff168273ffffffffffffffffffffffffffffffffffffffff161415611b16576040517f08c379a0000000000000000000000000000000000000000000000000000000008152600401611b0d90612b20565b60405180910390fd5b816002600083815260200190815260200160002060006101000a81548173ffffffffffffffffffffffffffffffffffffffff021916908373ffffffffffffffffffffffffffffffffffffffff160217905550611baf600460008473ffffffffffffffffffffffffffffffffffffffff1673ffffffffffffffffffffffffffffffffffffffff168152602001908152602001600020611f39565b808273ffffffffffffffffffffffffffffffffffffffff16600073ffffffffffffffffffffffffffffffffffffffff167fddf252ad1be2c89b69c2b068fc378daa952ba7f163c4a11628f55a4df523b3ef60405160405180910390a45050565b6008805490506009600083815260200190815260200160002081905550600881908060018154018082558091505060019003906000526020600020016000909190919091505550565b60606000821415611ca0576040518060400160405280600181526020017f30000000000000000000000000000000000000000000000000000000000000008152509050611dc3565b600082905060005b60008214611cd2578080611cbb90612f02565b915050600a82611ccb9190612d50565b9150611ca8565b60008167ffffffffffffffff811115611cee57611ced613067565b5b6040519080825280601f01601f191660200182016040528015611d205781602001600182028036833780820191505090505b5090506000600183611d329190612d81565b90505b60008614611dbb57600a86611d4a9190612f4b565b6030611d569190612cfa565b60f81b828280611d6590612e75565b935081518110611d7857611d77613038565b5b60200101907effffffffffffffffffffffffffffffffffffffffffffffffffffffffffffff1916908160001a905350600a86611db49190612d50565b9550611d35565b819450505050505b919050565b6060611e048383604051806020016040528060008152506040518060200160405280600081525060405180602001604052806000815250611f65565b905092915050565b600080823b905060008111915050919050565b600073ffffffffffffffffffffffffffffffffffffffff166003600083815260200190815260200160002060009054906101000a900473ffffffffffffffffffffffffffffffffffffffff1673ffffffffffffffffffffffffffffffffffffffff1614611eda5760006003600083815260200190815260200160002060006101000a81548173ffffffffffffffffffffffffffffffffffffffff021916908373ffffffffffffffffffffffffffffffffffffffff1602179055505b50565b60008160000154905060008111611f29576040517f08c379a0000000000000000000000000000000000000000000000000000000008152600401611f2090612ae0565b60405180910390fd5b6001810382600001819055505050565b6001816000016000828254019250508190555050565b60008183611f5d9190612d81565b905092915050565b606060008690506000869050600086905060008690506000869050600081518351855187518951611f969190612cfa565b611fa09190612cfa565b611faa9190612cfa565b611fb49190612cfa565b67ffffffffffffffff811115611fcd57611fcc613067565b5b6040519080825280601f01601f191660200182016040528015611fff5781602001600182028036833780820191505090505b5090506000819050600080600090505b88518110156120975788818151811061202b5761202a613038565b5b602001015160f81c60f81b83838061204290612f02565b94508151811061205557612054613038565b5b60200101907effffffffffffffffffffffffffffffffffffffffffffffffffffffffffffff1916908160001a905350808061208f90612f02565b91505061200f565b600090505b8751811015612124578781815181106120b8576120b7613038565b5b602001015160f81c60f81b8383806120cf90612f02565b9450815181106120e2576120e1613038565b5b60200101907effffffffffffffffffffffffffffffffffffffffffffffffffffffffffffff1916908160001a905350808061211c90612f02565b91505061209c565b600090505b86518110156121b15786818151811061214557612144613038565b5b602001015160f81c60f81b83838061215c90612f02565b94508151811061216f5761216e613038565b5b60200101907effffffffffffffffffffffffffffffffffffffffffffffffffffffffffffff1916908160001a90535080806121a990612f02565b915050612129565b600090505b855181101561223e578581815181106121d2576121d1613038565b5b602001015160f81c60f81b8383806121e990612f02565b9450815181106121fc576121fb613038565b5b60200101907effffffffffffffffffffffffffffffffffffffffffffffffffffffffffffff1916908160001a905350808061223690612f02565b9150506121b6565b600090505b84518110156122cb5784818151811061225f5761225e613038565b5b602001015160f81c60f81b83838061227690612f02565b94508151811061228957612288613038565b5b60200101907effffffffffffffffffffffffffffffffffffffffffffffffffffffffffffff1916908160001a90535080806122c390612f02565b915050612243565b82995050505050505050505095945050505050565b8280546122ec90612e9f565b90600052602060002090601f01602090048101928261230e5760008555612355565b82601f1061232757805160ff1916838001178555612355565b82800160010185558215612355579182015b82811115612354578251825591602001919060010190612339565b5b5090506123629190612366565b5090565b5b8082111561237f576000816000905550600101612367565b5090565b600061239661239184612c60565b612c3b565b9050828152602081018484840111156123b2576123b161309b565b5b6123bd848285612e33565b509392505050565b60006123d86123d384612c91565b612c3b565b9050828152602081018484840111156123f4576123f361309b565b5b6123ff848285612e33565b509392505050565b60008135905061241681613339565b92915050565b60008135905061242b81613350565b92915050565b60008135905061244081613367565b92915050565b6000813590506124558161337e565b92915050565b60008151905061246a8161337e565b92915050565b600082601f83011261248557612484613096565b5b8135612495848260208601612383565b91505092915050565b600082601f8301126124b3576124b2613096565b5b81356124c38482602086016123c5565b91505092915050565b6000813590506124db81613395565b92915050565b6000602082840312156124f7576124f66130a5565b5b600061250584828501612407565b91505092915050565b60008060408385031215612525576125246130a5565b5b600061253385828601612407565b925050602061254485828601612407565b9150509250929050565b600080600060608486031215612567576125666130a5565b5b600061257586828701612407565b935050602061258686828701612407565b9250506040612597868287016124cc565b9150509250925092565b600080600080608085870312156125bb576125ba6130a5565b5b60006125c987828801612407565b94505060206125da87828801612407565b93505060406125eb878288016124cc565b925050606085013567ffffffffffffffff81111561260c5761260b6130a0565b5b61261887828801612470565b91505092959194509250565b6000806040838503121561263b5761263a6130a5565b5b600061264985828601612407565b925050602061265a8582860161241c565b9150509250929050565b6000806040838503121561267b5761267a6130a5565b5b600061268985828601612407565b925050602061269a858286016124cc565b9150509250929050565b6000602082840312156126ba576126b96130a5565b5b60006126c88482850161241c565b91505092915050565b600080604083850312156126e8576126e76130a5565b5b60006126f685828601612431565b925050602083013567ffffffffffffffff811115612717576127166130a0565b5b6127238582860161249e565b9150509250929050565b600080600060608486031215612746576127456130a5565b5b600061275486828701612431565b935050602084013567ffffffffffffffff811115612775576127746130a0565b5b6127818682870161249e565b925050604084013567ffffffffffffffff8111156127a2576127a16130a0565b5b6127ae86828701612470565b9150509250925092565b6000602082840312156127ce576127cd6130a5565b5b60006127dc84828501612446565b91505092915050565b6000602082840312156127fb576127fa6130a5565b5b60006128098482850161245b565b91505092915050565b600060208284031215612828576128276130a5565b5b6000612836848285016124cc565b91505092915050565b61284881612db5565b82525050565b61285781612dc7565b82525050565b600061286882612cc2565b6128728185612cd8565b9350612882818560208601612e42565b61288b816130aa565b840191505092915050565b60006128a182612ccd565b6128ab8185612ce9565b93506128bb818560208601612e42565b6128c4816130aa565b840191505092915050565b60006128dc601b83612ce9565b91506128e7826130bb565b602082019050919050565b60006128ff603283612ce9565b915061290a826130e4565b604082019050919050565b6000612922601883612ce9565b915061292d82613133565b602082019050919050565b6000612945603983612ce9565b91506129508261315c565b604082019050919050565b6000612968602f83612ce9565b9150612973826131ab565b604082019050919050565b600061298b602c83612ce9565b9150612996826131fa565b604082019050919050565b60006129ae602c83612ce9565b91506129b982613249565b604082019050919050565b60006129d1601683612ce9565b91506129dc82613298565b602082019050919050565b60006129f4601483612ce9565b91506129ff826132c1565b602082019050919050565b6000612a17602f83612ce9565b9150612a22826132ea565b604082019050919050565b612a3681612e29565b82525050565b6000602082019050612a51600083018461283f565b92915050565b6000608082019050612a6c600083018761283f565b612a79602083018661283f565b612a866040830185612a2d565b8181036060830152612a98818461285d565b905095945050505050565b6000602082019050612ab8600083018461284e565b92915050565b60006020820190508181036000830152612ad88184612896565b905092915050565b60006020820190508181036000830152612af9816128cf565b9050919050565b60006020820190508181036000830152612b19816128f2565b9050919050565b60006020820190508181036000830152612b3981612915565b9050919050565b60006020820190508181036000830152612b5981612938565b9050919050565b60006020820190508181036000830152612b798161295b565b9050919050565b60006020820190508181036000830152612b998161297e565b9050919050565b60006020820190508181036000830152612bb9816129a1565b9050919050565b60006020820190508181036000830152612bd9816129c4565b9050919050565b60006020820190508181036000830152612bf9816129e7565b9050919050565b60006020820190508181036000830152612c1981612a0a565b9050919050565b6000602082019050612c356000830184612a2d565b92915050565b6000612c45612c56565b9050612c518282612ed1565b919050565b6000604051905090565b600067ffffffffffffffff821115612c7b57612c7a613067565b5b612c84826130aa565b9050602081019050919050565b600067ffffffffffffffff821115612cac57612cab613067565b5b612cb5826130aa565b9050602081019050919050565b600081519050919050565b600081519050919050565b600082825260208201905092915050565b600082825260208201905092915050565b6000612d0582612e29565b9150612d1083612e29565b9250827fffffffffffffffffffffffffffffffffffffffffffffffffffffffffffffffff03821115612d4557612d44612f7c565b5b828201905092915050565b6000612d5b82612e29565b9150612d6683612e29565b925082612d7657612d75612fab565b5b828204905092915050565b6000612d8c82612e29565b9150612d9783612e29565b925082821015612daa57612da9612f7c565b5b828203905092915050565b6000612dc082612e09565b9050919050565b60008115159050919050565b6000819050919050565b60007fffffffff0000000000000000000000000000000000000000000000000000000082169050919050565b600073ffffffffffffffffffffffffffffffffffffffff82169050919050565b6000819050919050565b82818337600083830152505050565b60005b83811015612e60578082015181840152602081019050612e45565b83811115612e6f576000848401525b50505050565b6000612e8082612e29565b91506000821415612e9457612e93612f7c565b5b600182039050919050565b60006002820490506001821680612eb757607f821691505b60208210811415612ecb57612eca612fda565b5b50919050565b612eda826130aa565b810181811067ffffffffffffffff82111715612ef957612ef8613067565b5b80604052505050565b6000612f0d82612e29565b91507fffffffffffffffffffffffffffffffffffffffffffffffffffffffffffffffff821415612f4057612f3f612f7c565b5b600182019050919050565b6000612f5682612e29565b9150612f6183612e29565b925082612f7157612f70612fab565b5b828206905092915050565b7f4e487b7100000000000000000000000000000000000000000000000000000000600052601160045260246000fd5b7f4e487b7100000000000000000000000000000000000000000000000000000000600052601260045260246000fd5b7f4e487b7100000000000000000000000000000000000000000000000000000000600052602260045260246000fd5b7f4e487b7100000000000000000000000000000000000000000000000000000000600052603160045260246000fd5b7f4e487b7100000000000000000000000000000000000000000000000000000000600052603260045260246000fd5b7f4e487b7100000000000000000000000000000000000000000000000000000000600052604160045260246000fd5b600080fd5b600080fd5b600080fd5b600080fd5b6000601f19601f8301169050919050565b7f436f756e7465723a2064656372656d656e74206f766572666c6f770000000000600082015250565b7f676976656e2061646472657373206d757374206e6f7420626520746865206f7760008201527f6e6572206f662074686520746f6b656e49640000000000000000000000000000602082015250565b7f676976656e206164647265737320697320696e76616c69640000000000000000600082015250565b7f6f6e6c79207265616c206164647265737365732061726520617574686f72697a60008201527f656420746f20706572666f726d207468697320616374696f6e00000000000000602082015250565b7f746f6b656e206973206265696e67207472616e73666572656420746f20616e2060008201527f696e76616c696420616464726573730000000000000000000000000000000000602082015250565b7f6f6e6c79206f776e657220697320617574686f72697a656420746f207065726660008201527f6f726d207472616e736665720000000000000000000000000000000000000000602082015250565b7f63616c6c6572206973206e656974686572206f776e6572206e6f72206170707260008201527f6f76656420666f7220616c6c0000000000000000000000000000000000000000602082015250565b7f746f6b656e496420616c72656164792065786973747300000000000000000000600082015250565b7f746f6b656e20646f6573206e6f74206578697374000000000000000000000000600082015250565b7f6f6e6c79206f776e657220697320617574686f72697a656420746f207065726660008201527f6f726d207468697320616374696f6e0000000000000000000000000000000000602082015250565b61334281612db5565b811461334d57600080fd5b50565b61335981612dc7565b811461336457600080fd5b50565b61337081612dd3565b811461337b57600080fd5b50565b61338781612ddd565b811461339257600080fd5b50565b61339e81612e29565b81146133a957600080fd5b5056fea2646970667358221220d9cbf868a7e2b32594300f1f2a9ae3c5249f4a07dadd896b624372fdde059cb464736f6c6343000806003368747470733a2f2f73332d75732d776573742d322e616d617a6f6e6177732e636f6d2f756461636974792d626c6f636b636861696e2f63617073746f6e65",
  "immutableReferences": {},
  "source": "// SPDX-License-Identifier: MIT\npragma solidity ^0.8.6;\n\nimport '@openzeppelin/contracts/utils/Address.sol';\nimport '@openzeppelin/contracts/utils/Counters.sol';\nimport '@openzeppelin/contracts/utils/math/SafeMath.sol';\nimport '@openzeppelin/contracts/token/ERC721/IERC721Receiver.sol';\nimport \"./Oraclize.sol\";\n\n/// @author Abhinav Mishra\n\n/********************************************* */\n/* Ownable Smart Contract                      */\n/********************************************* */\nabstract contract Ownable {\n    address private _owner;\n\n    event OwnershipTransferred(address indexed previousOwner, address indexed newOwner);\n\n    /********************************************* */\n    /* Function Modifiers                          */\n    /********************************************* */\n    modifier onlyOwner() {\n        require(msg.sender == _owner, \"only owner is authorized to perform this action\");\n        _;\n    }\n\n    modifier onlyRealAddress() {\n        require(msg.sender != address(0), \"only real addresses are authorized to perform this action\");\n        _;\n    }\n\n    /********************************************* */\n    /* Constructor                                 */\n    /********************************************* */\n    constructor() {\n        _setOwner(msg.sender);\n    }\n\n    /********************************************* */\n    /* Public Functions                            */\n    /********************************************* */    \n    function transferOwnership(address newOwner) public onlyOwner onlyRealAddress {\n        _setOwner(newOwner);\n    }\n\n    function owner() public view returns(address) {\n        return _owner;\n    }\n\n    /********************************************* */\n    /* Private Functions                           */\n    /********************************************* */    \n    function _setOwner(address newOwner) private {\n        address oldOwner = _owner;\n        _owner = newOwner;\n        emit OwnershipTransferred(oldOwner, _owner);\n    }\n}\n\n/********************************************* */\n/* Pausable Smart Contract                     */\n/********************************************* */\nabstract contract Pausable is Ownable {\n    bool private _paused;\n\n    event Paused(address indexed owner);\n    event Unpaused(address indexed owner);\n\n    /********************************************* */\n    /* Function Modifiers                          */\n    /********************************************* */\n    modifier whenNotPaused() {\n        require(!_paused, \"must not be paused\");\n        _;\n    }\n\n    modifier whenPaused() {\n        require(_paused, \"must be paused\");\n        _;\n    }\n\n    /********************************************* */\n    /* Constructor                                 */\n    /********************************************* */\n    constructor() {\n        _setPaused(false);\n    }\n\n    /********************************************* */\n    /* Public Functions                            */\n    /********************************************* */\n    function setPaused(bool pause) public onlyOwner returns(bool) {\n        _setPaused(pause);\n        return(_paused);\n    }\n\n    /********************************************* */\n    /* Private Functions                           */\n    /********************************************* */\n    function _setPaused(bool pause) private {\n        _paused = pause;\n\n        if(_paused) {\n            emit Paused(msg.sender);\n        } else {\n            emit Unpaused(msg.sender);\n        }\n    }\n}\n\nabstract contract ERC165 {\n    bytes4 private constant _INTERFACE_ID_ERC165 = 0x01ffc9a7;\n    /*\n     * 0x01ffc9a7 ===\n     *     bytes4(keccak256('supportsInterface(bytes4)'))\n     */\n\n    /**\n     * @dev a mapping of interface id to whether or not it's supported\n     */\n    mapping(bytes4 => bool) private _supportedInterfaces;\n\n    /**\n     * @dev A contract implementing SupportsInterfaceWithLookup\n     * implement ERC165 itself\n     */\n    constructor () {\n        _registerInterface(_INTERFACE_ID_ERC165);\n    }\n\n    /**\n     * @dev implement supportsInterface(bytes4) using a lookup table\n     */\n    function supportsInterface(bytes4 interfaceId) external view returns (bool) {\n        return _supportedInterfaces[interfaceId];\n    }\n\n    /**\n     * @dev internal method for registering an interface\n     */\n    function _registerInterface(bytes4 interfaceId) internal {\n        require(interfaceId != 0xffffffff);\n        _supportedInterfaces[interfaceId] = true;\n    }\n}\n\nabstract contract ERC721 is Pausable, ERC165 {\n    using SafeMath for uint256;\n    using Address  for address;\n    using Counters for Counters.Counter;\n\n    event Transfer      (address indexed from, address indexed to, uint256 indexed tokenId);\n    event Approval      (address indexed owner, address indexed approved, uint256 indexed tokenId);\n    event ApprovalForAll(address indexed owner, address indexed operator, bool approved);\n\n    // Equals to `bytes4(keccak256(\"onERC721Received(address,address,uint256,bytes)\"))`\n    // which can be also obtained as `IERC721Receiver(0).onERC721Received.selector`\n    bytes4 private constant _ERC721_RECEIVED = 0x150b7a02;\n\n    // Mapping from token ID to owner\n    mapping (uint256 => address) private _tokenOwner;\n\n    // Mapping from token ID to approved address\n    mapping (uint256 => address) private _tokenApprovals;\n\n    // Mapping from owner to number of owned token\n    mapping (address => Counters.Counter) private _ownedTokensCount;\n\n    // Mapping from owner to operator approvals\n    mapping (address => mapping (address => bool)) private _operatorApprovals;\n\n    bytes4 private constant _INTERFACE_ID_ERC721 = 0x80ac58cd;\n\n    constructor() {\n        // register the supported interfaces to conform to ERC721 via ERC165\n        _registerInterface(_INTERFACE_ID_ERC721);\n    }\n\n    \n     // @dev Returns the number of tokens in `owner`'s account.\n    function balanceOf(address owner) public view onlyRealAddress returns (uint256) {\n        return _ownedTokensCount[owner].current();\n    }\n\n    // @dev Returns the owner of `tokenId`\n    function ownerOf(uint256 tokenId) public view returns (address) {\n        return _ownerOf(tokenId);\n    }\n\n    // @dev Approves another address to transfer the given token ID\n    function approve(address to, uint256 tokenId) public {\n        address owner = _ownerOf(tokenId);\n        require(to != owner, \"given address must not be the owner of the tokenId\");\n\n        require(\n            msg.sender == owner || isApprovedForAll(owner, msg.sender),\n            \"caller is neither owner nor approved for all\"\n        );\n\n        _approve(to, tokenId);\n    }\n\n    function getApproved(uint256 tokenId) public view returns (address) {\n        require(_exists(tokenId), \"token does not exist\");\n\n        return _tokenApprovals[tokenId];\n    }\n\n    /**\n     * @dev Sets or unsets the approval of a given operator\n     * An operator is allowed to transfer all tokens of the sender on their behalf\n     * @param to operator address to set the approval\n     * @param approved representing the status of the approval to be set\n     */\n    function setApprovalForAll(address to, bool approved) public {\n        require(to != msg.sender);\n        _operatorApprovals[msg.sender][to] = approved;\n        emit ApprovalForAll(msg.sender, to, approved);\n    }\n\n    /**\n     * @dev Tells whether an operator is approved by a given owner\n     * @param owner owner address which you want to query the approval of\n     * @param operator operator address which you want to query the approval of\n     * @return bool whether the given operator is approved by the given owner\n     */\n    function isApprovedForAll(address owner, address operator) public view returns (bool) {\n        return _operatorApprovals[owner][operator];\n    }\n\n    function transferFrom(address from, address to, uint256 tokenId) public {\n        require(_isApprovedOrOwner(msg.sender, tokenId));\n\n        _transferFrom(from, to, tokenId);\n    }\n\n    function safeTransferFrom(address from, address to, uint256 tokenId) public {\n        safeTransferFrom(from, to, tokenId, \"\");\n    }\n\n    function safeTransferFrom(address from, address to, uint256 tokenId, bytes memory _data) public {\n        transferFrom(from, to, tokenId);\n        require(_checkOnERC721Received(from, to, tokenId, _data));\n    }\n\n    /**\n     * @dev Returns whether the specified token exists\n     * @param tokenId uint256 ID of the token to query the existence of\n     * @return bool whether the token exists\n     */\n    function _exists(uint256 tokenId) internal view returns (bool) {\n        address owner = _tokenOwner[tokenId];\n        return owner != address(0);\n    }\n\n    /**\n     * @dev Returns whether the given spender can transfer a given token ID\n     * @param spender address of the spender to query\n     * @param tokenId uint256 ID of the token to be transferred\n     * @return bool whether the msg.sender is approved for the given token ID,\n     * is an operator of the owner, or is the owner of the token\n     */\n    function _isApprovedOrOwner(address spender, uint256 tokenId) internal view returns (bool) {\n        address owner = ownerOf(tokenId);\n        return (spender == owner || getApproved(tokenId) == spender || isApprovedForAll(owner, spender));\n    }\n\n    // @dev Internal function to mint a new token\n    // TIP: remember the functions to use for Counters. you can refresh yourself with the link above\n    function _mint(address to, uint256 tokenId) virtual internal {\n        require(!_exists(tokenId), \"tokenId already exists\");\n        require(to != address(0), \"given address is invalid\");\n        \n        _tokenOwner[tokenId] = to;\n        _ownedTokensCount[to].increment();\n\n        emit Transfer(address(0), to, tokenId);\n    }\n\n    // @dev Internal function to transfer ownership of a given token ID to another address.\n    // TIP: remember the functions to use for Counters. you can refresh yourself with the link above\n    function _transferFrom(address from, address to, uint256 tokenId) virtual internal {\n        address owner = ownerOf(tokenId);\n\n        require(from == owner, \"only owner is authorized to perform transfer\");\n        require(to != address(0), \"token is being transfered to an invalid address\");\n        \n        _clearApproval(tokenId);\n\n        _ownedTokensCount[owner].decrement();\n        _ownedTokensCount[to].increment();\n        _tokenOwner[tokenId] = to;\n\n        emit Transfer(from, to, tokenId);\n    }\n\n    /**\n     * @dev Internal function to invoke `onERC721Received` on a target address\n     * The call is not executed if the target address is not a contract\n     * @param from address representing the previous owner of the given token ID\n     * @param to target address that will receive the tokens\n     * @param tokenId uint256 ID of the token to be transferred\n     * @param _data bytes optional data to send along with the call\n     * @return bool whether the call correctly returned the expected magic value\n     */\n    function _checkOnERC721Received(address from, address to, uint256 tokenId, bytes memory _data)\n        internal returns (bool)\n    {\n        if (!to.isContract()) {\n            return true;\n        }\n\n        bytes4 retval = IERC721Receiver(to).onERC721Received(msg.sender, from, tokenId, _data);\n        return (retval == _ERC721_RECEIVED);\n    }\n\n    // @dev Private function to clear current approval of a given token ID\n    function _clearApproval(uint256 tokenId) private {\n        if (_tokenApprovals[tokenId] != address(0)) {\n            _tokenApprovals[tokenId] = address(0);\n        }\n    }\n\n    /**\n     * @dev Approve `to` to operate on `tokenId`\n     *\n     * Emits an {Approval} event.\n     */\n    function _approve(address to, uint256 tokenId) private {\n        _tokenApprovals[tokenId] = to;\n\n        emit Approval(_ownerOf(tokenId), to, tokenId);\n    }\n\n    // @dev {Private} Returns the owner of `tokenId`\n    function _ownerOf(uint256 tokenId) private view returns(address) {\n        return _tokenOwner[tokenId];\n    }\n}\n\nabstract contract ERC721Enumerable is ERC165, ERC721 {\n    using SafeMath for uint256;\n    \n    // Mapping from owner to list of owned token IDs\n    mapping(address => uint256[]) private _ownedTokens;\n\n    // Mapping from token ID to index of the owner tokens list\n    mapping(uint256 => uint256) private _ownedTokensIndex;\n\n    // Array with all token ids, used for enumeration\n    uint256[] private _allTokens;\n\n    // Mapping from token id to position in the allTokens array\n    mapping(uint256 => uint256) private _allTokensIndex;\n\n    bytes4 private constant _INTERFACE_ID_ERC721_ENUMERABLE = 0x780e9d63;\n    /*\n     * 0x780e9d63 ===\n     *     bytes4(keccak256('totalSupply()')) ^\n     *     bytes4(keccak256('tokenOfOwnerByIndex(address,uint256)')) ^\n     *     bytes4(keccak256('tokenByIndex(uint256)'))\n     */\n\n    /**\n     * @dev Constructor function\n     */\n    constructor() {\n        // register the supported interface to conform to ERC721Enumerable via ERC165\n        _registerInterface(_INTERFACE_ID_ERC721_ENUMERABLE);\n    }\n\n    /**\n     * @dev Gets the token ID at a given index of the tokens list of the requested owner\n     * @param owner address owning the tokens list to be accessed\n     * @param index uint256 representing the index to be accessed of the requested tokens list\n     * @return uint256 token ID at the given index of the tokens list owned by the requested address\n     */\n    function tokenOfOwnerByIndex(address owner, uint256 index) public view returns (uint256) {\n        require(index < balanceOf(owner));\n        return _ownedTokens[owner][index];\n    }\n\n    /**\n     * @dev Gets the total amount of tokens stored by the contract\n     * @return uint256 representing the total amount of tokens\n     */\n    function totalSupply() public view returns (uint256) {\n        return _allTokens.length;\n    }\n\n    /**\n     * @dev Gets the token ID at a given index of all the tokens in this contract\n     * Reverts if the index is greater or equal to the total number of tokens\n     * @param index uint256 representing the index to be accessed of the tokens list\n     * @return uint256 token ID at the given index of the tokens list\n     */\n    function tokenByIndex(uint256 index) public view returns (uint256) {\n        require(index < totalSupply());\n        return _allTokens[index];\n    }\n\n    /**\n     * @dev Internal function to transfer ownership of a given token ID to another address.\n     * As opposed to transferFrom, this imposes no restrictions on msg.sender.\n     * @param from current owner of the token\n     * @param to address to receive the ownership of the given token ID\n     * @param tokenId uint256 ID of the token to be transferred\n     */\n    function _transferFrom(address from, address to, uint256 tokenId) override internal {\n        super._transferFrom(from, to, tokenId);\n\n        _removeTokenFromOwnerEnumeration(from, tokenId);\n\n        _addTokenToOwnerEnumeration(to, tokenId);\n    }\n\n    /**\n     * @dev Internal function to mint a new token\n     * Reverts if the given token ID already exists\n     * @param to address the beneficiary that will own the minted token\n     * @param tokenId uint256 ID of the token to be minted\n     */\n    function _mint(address to, uint256 tokenId) override internal {\n        super._mint(to, tokenId);\n\n        _addTokenToOwnerEnumeration(to, tokenId);\n\n        _addTokenToAllTokensEnumeration(tokenId);\n    }\n\n    /**\n     * @dev Gets the list of token IDs of the requested owner\n     * @param owner address owning the tokens\n     * @return uint256[] List of token IDs owned by the requested address\n     */\n    function _tokensOfOwner(address owner) internal view returns (uint256[] storage) {\n        return _ownedTokens[owner];\n    }\n\n    /**\n     * @dev Private function to add a token to this extension's ownership-tracking data structures.\n     * @param to address representing the new owner of the given token ID\n     * @param tokenId uint256 ID of the token to be added to the tokens list of the given address\n     */\n    function _addTokenToOwnerEnumeration(address to, uint256 tokenId) private {\n        _ownedTokensIndex[tokenId] = _ownedTokens[to].length;\n        _ownedTokens[to].push(tokenId);\n    }\n\n    /**\n     * @dev Private function to add a token to this extension's token tracking data structures.\n     * @param tokenId uint256 ID of the token to be added to the tokens list\n     */\n    function _addTokenToAllTokensEnumeration(uint256 tokenId) private {\n        _allTokensIndex[tokenId] = _allTokens.length;\n        _allTokens.push(tokenId);\n    }\n\n    /**\n     * @dev Private function to remove a token from this extension's ownership-tracking data structures. Note that\n     * while the token is not assigned a new owner, the _ownedTokensIndex mapping is _not_ updated: this allows for\n     * gas optimizations e.g. when performing a transfer operation (avoiding double writes).\n     * This has O(1) time complexity, but alters the order of the _ownedTokens array.\n     * @param from address representing the previous owner of the given token ID\n     * @param tokenId uint256 ID of the token to be removed from the tokens list of the given address\n     */\n    function _removeTokenFromOwnerEnumeration(address from, uint256 tokenId) private {\n        // To prevent a gap in from's tokens array, we store the last token in the index of the token to delete, and\n        // then delete the last slot (swap and pop).\n\n        uint256 lastTokenIndex = _ownedTokens[from].length.sub(1);\n        uint256 tokenIndex = _ownedTokensIndex[tokenId];\n\n        // When the token to delete is the last token, the swap operation is unnecessary\n        if (tokenIndex != lastTokenIndex) {\n            uint256 lastTokenId = _ownedTokens[from][lastTokenIndex];\n\n            _ownedTokens[from][tokenIndex] = lastTokenId; // Move the last token to the slot of the to-delete token\n            _ownedTokensIndex[lastTokenId] = tokenIndex; // Update the moved token's index\n        }\n\n        // This also deletes the contents at the last position of the array\n        _ownedTokens[from].pop();\n    }\n\n    /**\n     * @dev Private function to remove a token from this extension's token tracking data structures.\n     * This has O(1) time complexity, but alters the order of the _allTokens array.\n     * @param tokenId uint256 ID of the token to be removed from the tokens list\n     */\n    function _removeTokenFromAllTokensEnumeration(uint256 tokenId) private {\n        // To prevent a gap in the tokens array, we store the last token in the index of the token to delete, and\n        // then delete the last slot (swap and pop).\n\n        uint256 lastTokenIndex = _allTokens.length.sub(1);\n        uint256 tokenIndex = _allTokensIndex[tokenId];\n\n        // When the token to delete is the last token, the swap operation is unnecessary. However, since this occurs so\n        // rarely (when the last minted token is burnt) that we still do the swap here to avoid the gas cost of adding\n        // an 'if' statement (like in _removeTokenFromOwnerEnumeration)\n        uint256 lastTokenId = _allTokens[lastTokenIndex];\n\n        _allTokens[tokenIndex] = lastTokenId; // Move the last token to the slot of the to-delete token\n        _allTokensIndex[lastTokenId] = tokenIndex; // Update the moved token's index\n\n        // This also deletes the contents at the last position of the array\n        _allTokens.pop();\n        _allTokensIndex[tokenId] = 0;\n    }\n}\n\ncontract ERC721Metadata is ERC721Enumerable, usingOraclize {\n    using Buffer for uint256;\n\n    string private _name;\n    string private _symbol;\n    string private _baseTokenURI;\n\n    mapping(uint256 => string) private _tokenURIs;\n\n    bytes4 private constant _INTERFACE_ID_ERC721_METADATA = 0x5b5e139f;\n    /*\n     * 0x5b5e139f ===\n     *     bytes4(keccak256('name()')) ^\n     *     bytes4(keccak256('symbol()')) ^\n     *     bytes4(keccak256('tokenURI(uint256)'))\n     */\n\n    constructor (string memory name, string memory symbol, string memory baseTokenURI) {\n        _name         = name;\n        _symbol       = symbol;\n        _baseTokenURI = baseTokenURI;\n\n        _registerInterface(_INTERFACE_ID_ERC721_METADATA);\n    }\n\n    // @dev Returns token name\n    function getName() external view returns(string memory) {\n        return _name;\n    }\n\n    // @dev Returns token symbol\n    function getSymbol() external view returns(string memory) {\n        return _symbol;\n    }\n\n    // @dev Returns token base URI\n    function getBaseTokenURI() external view returns(string memory) {\n        return _baseTokenURI;\n    }\n\n    function tokenURI(uint256 tokenId) external view returns (string memory) {\n        require(_exists(tokenId));\n        return _tokenURIs[tokenId];\n    }\n\n    function setTokenURI(uint256 tokenId) internal {\n        require(_exists(tokenId));\n\n        _tokenURIs[tokenId] = super.strConcat(_baseTokenURI, super.uint2str(tokenId));\n    }\n}\n\n//  TODO's: Create CustomERC721Token contract that inherits from the ERC721Metadata contract. You can name this contract as you please\n//  1) Pass in appropriate values for the inherited ERC721Metadata contract\n//      - make the base token uri: https://s3-us-west-2.amazonaws.com/udacity-blockchain/capstone/\n//  2) create a public mint() that does the following:\n//      -can only be executed by the contract owner\n//      -takes in a 'to' address, tokenId, and tokenURI as parameters\n//      -returns a true boolean upon completion of the function\n//      -calls the superclass mint and setTokenURI functions\ncontract Casa is ERC721Metadata(\n        \"Casa\", \n        \"CASA\", \n        \"https://s3-us-west-2.amazonaws.com/udacity-blockchain/capstone\"\n    ) \n{\n    function mint(\n        address to, \n        uint256 tokenId\n    ) \n        external \n        onlyOwner\n        returns(bool)\n    {\n        super._mint(to, tokenId);\n        super.setTokenURI(tokenId);\n        return(true);\n    }\n}\n",
  "sourcePath": "/Users/abhinavmishra/udacity/Blockchain-Capstone/eth-contracts/contracts/ERC721Mintable.sol",
  "compiler": {
    "name": "solc",
    "version": "0.8.6+commit.11564f7e.Emscripten.clang"
  },
  "schemaVersion": "3.4.1",
  "updatedAt": "2021-06-26T15:28:35.363Z",
  "networkType": "ethereum",
  "devdoc": {
    "kind": "dev",
    "methods": {
      "isApprovedForAll(address,address)": {
        "details": "Tells whether an operator is approved by a given owner",
        "params": {
          "operator": "operator address which you want to query the approval of",
          "owner": "owner address which you want to query the approval of"
        },
        "returns": {
          "_0": "bool whether the given operator is approved by the given owner"
        }
      },
      "setApprovalForAll(address,bool)": {
        "details": "Sets or unsets the approval of a given operator An operator is allowed to transfer all tokens of the sender on their behalf",
        "params": {
          "approved": "representing the status of the approval to be set",
          "to": "operator address to set the approval"
        }
      },
      "supportsInterface(bytes4)": {
        "details": "implement supportsInterface(bytes4) using a lookup table"
      },
      "tokenByIndex(uint256)": {
        "details": "Gets the token ID at a given index of all the tokens in this contract Reverts if the index is greater or equal to the total number of tokens",
        "params": {
          "index": "uint256 representing the index to be accessed of the tokens list"
        },
        "returns": {
          "_0": "uint256 token ID at the given index of the tokens list"
        }
      },
      "tokenOfOwnerByIndex(address,uint256)": {
        "details": "Gets the token ID at a given index of the tokens list of the requested owner",
        "params": {
          "index": "uint256 representing the index to be accessed of the requested tokens list",
          "owner": "address owning the tokens list to be accessed"
        },
        "returns": {
          "_0": "uint256 token ID at the given index of the tokens list owned by the requested address"
        }
      },
      "totalSupply()": {
        "details": "Gets the total amount of tokens stored by the contract",
        "returns": {
          "_0": "uint256 representing the total amount of tokens"
        }
      }
    },
    "version": 1
  },
  "userdoc": {
    "kind": "user",
    "methods": {},
    "version": 1
  }
}