{
  "contractName": "ERC721Metadata",
  "abi": [
    {
      "inputs": [
        {
          "internalType": "string",
          "name": "name",
          "type": "string"
        },
        {
          "internalType": "string",
          "name": "symbol",
          "type": "string"
        },
        {
          "internalType": "string",
          "name": "baseTokenURI",
          "type": "string"
        }
      ],
      "stateMutability": "nonpayable",
      "type": "constructor"
    },
    {
      "anonymous": false,
      "inputs": [
        {
          "indexed": true,
          "internalType": "address",
          "name": "owner",
          "type": "address"
        },
        {
          "indexed": true,
          "internalType": "address",
          "name": "approved",
          "type": "address"
        },
        {
          "indexed": true,
          "internalType": "uint256",
          "name": "tokenId",
          "type": "uint256"
        }
      ],
      "name": "Approval",
      "type": "event"
    },
    {
      "anonymous": false,
      "inputs": [
        {
          "indexed": true,
          "internalType": "address",
          "name": "owner",
          "type": "address"
        },
        {
          "indexed": true,
          "internalType": "address",
          "name": "operator",
          "type": "address"
        },
        {
          "indexed": false,
          "internalType": "bool",
          "name": "approved",
          "type": "bool"
        }
      ],
      "name": "ApprovalForAll",
      "type": "event"
    },
    {
      "anonymous": false,
      "inputs": [
        {
          "indexed": true,
          "internalType": "address",
          "name": "previousOwner",
          "type": "address"
        },
        {
          "indexed": true,
          "internalType": "address",
          "name": "newOwner",
          "type": "address"
        }
      ],
      "name": "OwnershipTransferred",
      "type": "event"
    },
    {
      "anonymous": false,
      "inputs": [
        {
          "indexed": true,
          "internalType": "address",
          "name": "owner",
          "type": "address"
        }
      ],
      "name": "Paused",
      "type": "event"
    },
    {
      "anonymous": false,
      "inputs": [
        {
          "indexed": true,
          "internalType": "address",
          "name": "from",
          "type": "address"
        },
        {
          "indexed": true,
          "internalType": "address",
          "name": "to",
          "type": "address"
        },
        {
          "indexed": true,
          "internalType": "uint256",
          "name": "tokenId",
          "type": "uint256"
        }
      ],
      "name": "Transfer",
      "type": "event"
    },
    {
      "anonymous": false,
      "inputs": [
        {
          "indexed": true,
          "internalType": "address",
          "name": "owner",
          "type": "address"
        }
      ],
      "name": "Unpaused",
      "type": "event"
    },
    {
      "inputs": [
        {
          "internalType": "bytes32",
          "name": "_myid",
          "type": "bytes32"
        },
        {
          "internalType": "string",
          "name": "_result",
          "type": "string"
        }
      ],
      "name": "__callback",
      "outputs": [],
      "stateMutability": "nonpayable",
      "type": "function"
    },
    {
      "inputs": [
        {
          "internalType": "bytes32",
          "name": "_myid",
          "type": "bytes32"
        },
        {
          "internalType": "string",
          "name": "_result",
          "type": "string"
        },
        {
          "internalType": "bytes",
          "name": "_proof",
          "type": "bytes"
        }
      ],
      "name": "__callback",
      "outputs": [],
      "stateMutability": "nonpayable",
      "type": "function"
    },
    {
      "inputs": [
        {
          "internalType": "address",
          "name": "to",
          "type": "address"
        },
        {
          "internalType": "uint256",
          "name": "tokenId",
          "type": "uint256"
        }
      ],
      "name": "approve",
      "outputs": [],
      "stateMutability": "nonpayable",
      "type": "function"
    },
    {
      "inputs": [
        {
          "internalType": "address",
          "name": "owner",
          "type": "address"
        }
      ],
      "name": "balanceOf",
      "outputs": [
        {
          "internalType": "uint256",
          "name": "",
          "type": "uint256"
        }
      ],
      "stateMutability": "view",
      "type": "function"
    },
    {
      "inputs": [
        {
          "internalType": "uint256",
          "name": "tokenId",
          "type": "uint256"
        }
      ],
      "name": "getApproved",
      "outputs": [
        {
          "internalType": "address",
          "name": "",
          "type": "address"
        }
      ],
      "stateMutability": "view",
      "type": "function"
    },
    {
      "inputs": [
        {
          "internalType": "address",
          "name": "owner",
          "type": "address"
        },
        {
          "internalType": "address",
          "name": "operator",
          "type": "address"
        }
      ],
      "name": "isApprovedForAll",
      "outputs": [
        {
          "internalType": "bool",
          "name": "",
          "type": "bool"
        }
      ],
      "stateMutability": "view",
      "type": "function"
    },
    {
      "inputs": [],
      "name": "owner",
      "outputs": [
        {
          "internalType": "address",
          "name": "",
          "type": "address"
        }
      ],
      "stateMutability": "view",
      "type": "function"
    },
    {
      "inputs": [
        {
          "internalType": "uint256",
          "name": "tokenId",
          "type": "uint256"
        }
      ],
      "name": "ownerOf",
      "outputs": [
        {
          "internalType": "address",
          "name": "",
          "type": "address"
        }
      ],
      "stateMutability": "view",
      "type": "function"
    },
    {
      "inputs": [
        {
          "internalType": "address",
          "name": "from",
          "type": "address"
        },
        {
          "internalType": "address",
          "name": "to",
          "type": "address"
        },
        {
          "internalType": "uint256",
          "name": "tokenId",
          "type": "uint256"
        }
      ],
      "name": "safeTransferFrom",
      "outputs": [],
      "stateMutability": "nonpayable",
      "type": "function"
    },
    {
      "inputs": [
        {
          "internalType": "address",
          "name": "from",
          "type": "address"
        },
        {
          "internalType": "address",
          "name": "to",
          "type": "address"
        },
        {
          "internalType": "uint256",
          "name": "tokenId",
          "type": "uint256"
        },
        {
          "internalType": "bytes",
          "name": "_data",
          "type": "bytes"
        }
      ],
      "name": "safeTransferFrom",
      "outputs": [],
      "stateMutability": "nonpayable",
      "type": "function"
    },
    {
      "inputs": [
        {
          "internalType": "address",
          "name": "to",
          "type": "address"
        },
        {
          "internalType": "bool",
          "name": "approved",
          "type": "bool"
        }
      ],
      "name": "setApprovalForAll",
      "outputs": [],
      "stateMutability": "nonpayable",
      "type": "function"
    },
    {
      "inputs": [
        {
          "internalType": "bool",
          "name": "pause",
          "type": "bool"
        }
      ],
      "name": "setPaused",
      "outputs": [
        {
          "internalType": "bool",
          "name": "",
          "type": "bool"
        }
      ],
      "stateMutability": "nonpayable",
      "type": "function"
    },
    {
      "inputs": [
        {
          "internalType": "bytes4",
          "name": "interfaceId",
          "type": "bytes4"
        }
      ],
      "name": "supportsInterface",
      "outputs": [
        {
          "internalType": "bool",
          "name": "",
          "type": "bool"
        }
      ],
      "stateMutability": "view",
      "type": "function"
    },
    {
      "inputs": [
        {
          "internalType": "uint256",
          "name": "index",
          "type": "uint256"
        }
      ],
      "name": "tokenByIndex",
      "outputs": [
        {
          "internalType": "uint256",
          "name": "",
          "type": "uint256"
        }
      ],
      "stateMutability": "view",
      "type": "function"
    },
    {
      "inputs": [
        {
          "internalType": "address",
          "name": "owner",
          "type": "address"
        },
        {
          "internalType": "uint256",
          "name": "index",
          "type": "uint256"
        }
      ],
      "name": "tokenOfOwnerByIndex",
      "outputs": [
        {
          "internalType": "uint256",
          "name": "",
          "type": "uint256"
        }
      ],
      "stateMutability": "view",
      "type": "function"
    },
    {
      "inputs": [],
      "name": "totalSupply",
      "outputs": [
        {
          "internalType": "uint256",
          "name": "",
          "type": "uint256"
        }
      ],
      "stateMutability": "view",
      "type": "function"
    },
    {
      "inputs": [
        {
          "internalType": "address",
          "name": "from",
          "type": "address"
        },
        {
          "internalType": "address",
          "name": "to",
          "type": "address"
        },
        {
          "internalType": "uint256",
          "name": "tokenId",
          "type": "uint256"
        }
      ],
      "name": "transferFrom",
      "outputs": [],
      "stateMutability": "nonpayable",
      "type": "function"
    },
    {
      "inputs": [
        {
          "internalType": "address",
          "name": "newOwner",
          "type": "address"
        }
      ],
      "name": "transferOwnership",
      "outputs": [],
      "stateMutability": "nonpayable",
      "type": "function"
    },
    {
      "inputs": [],
      "name": "getName",
      "outputs": [
        {
          "internalType": "string",
          "name": "",
          "type": "string"
        }
      ],
      "stateMutability": "view",
      "type": "function"
    },
    {
      "inputs": [],
      "name": "getSymbol",
      "outputs": [
        {
          "internalType": "string",
          "name": "",
          "type": "string"
        }
      ],
      "stateMutability": "view",
      "type": "function"
    },
    {
      "inputs": [],
      "name": "getBaseTokenURI",
      "outputs": [
        {
          "internalType": "string",
          "name": "",
          "type": "string"
        }
      ],
      "stateMutability": "view",
      "type": "function"
    },
    {
      "inputs": [
        {
          "internalType": "uint256",
          "name": "tokenId",
          "type": "uint256"
        }
      ],
      "name": "tokenURI",
      "outputs": [
        {
          "internalType": "string",
          "name": "",
          "type": "string"
        }
      ],
      "stateMutability": "view",
      "type": "function"
    }
  ],
  "bytecode": "0x60806040523480156200001157600080fd5b5060405162002ece38038062002ece833981810160405281019062000037919062000480565b62000048336200010e60201b60201c565b6200005a6000620001f260201b60201c565b620000726301ffc9a760e01b620002b260201b60201c565b6200008a6380ac58cd60e01b620002b260201b60201c565b620000a263780e9d6360e01b620002b260201b60201c565b82600f9080519060200190620000ba92919062000352565b508160109080519060200190620000d392919062000352565b508060119080519060200190620000ec92919062000352565b5062000105635b5e139f60e01b620002b260201b60201c565b505050620006bd565b60008060009054906101000a900473ffffffffffffffffffffffffffffffffffffffff169050816000806101000a81548173ffffffffffffffffffffffffffffffffffffffff021916908373ffffffffffffffffffffffffffffffffffffffff16021790555060008054906101000a900473ffffffffffffffffffffffffffffffffffffffff1673ffffffffffffffffffffffffffffffffffffffff168173ffffffffffffffffffffffffffffffffffffffff167f8be0079c531659141344cd1fd0a4f28419497f9722a3daafe3b4186f6b6457e060405160405180910390a35050565b80600060146101000a81548160ff021916908315150217905550600060149054906101000a900460ff16156200026b573373ffffffffffffffffffffffffffffffffffffffff167f62e78cea01bee320cd4e420270b5ea74000d11b0c9f74754ebdbfc544b05a25860405160405180910390a2620002af565b3373ffffffffffffffffffffffffffffffffffffffff167f5db9ee0a495bf2e6ff9c91a7834c1ba4fdd244a5e8aa4e537bd38aeae4b073aa60405160405180910390a25b50565b63ffffffff60e01b817bffffffffffffffffffffffffffffffffffffffffffffffffffffffff19161415620002e657600080fd5b6001806000837bffffffffffffffffffffffffffffffffffffffffffffffffffffffff19167bffffffffffffffffffffffffffffffffffffffffffffffffffffffff1916815260200190815260200160002060006101000a81548160ff02191690831515021790555050565b8280546200036090620005ce565b90600052602060002090601f016020900481019282620003845760008555620003d0565b82601f106200039f57805160ff1916838001178555620003d0565b82800160010185558215620003d0579182015b82811115620003cf578251825591602001919060010190620003b2565b5b509050620003df9190620003e3565b5090565b5b80821115620003fe576000816000905550600101620003e4565b5090565b600062000419620004138462000562565b62000539565b9050828152602081018484840111156200043857620004376200069d565b5b6200044584828562000598565b509392505050565b600082601f83011262000465576200046462000698565b5b81516200047784826020860162000402565b91505092915050565b6000806000606084860312156200049c576200049b620006a7565b5b600084015167ffffffffffffffff811115620004bd57620004bc620006a2565b5b620004cb868287016200044d565b935050602084015167ffffffffffffffff811115620004ef57620004ee620006a2565b5b620004fd868287016200044d565b925050604084015167ffffffffffffffff811115620005215762000520620006a2565b5b6200052f868287016200044d565b9150509250925092565b60006200054562000558565b905062000553828262000604565b919050565b6000604051905090565b600067ffffffffffffffff82111562000580576200057f62000669565b5b6200058b82620006ac565b9050602081019050919050565b60005b83811015620005b85780820151818401526020810190506200059b565b83811115620005c8576000848401525b50505050565b60006002820490506001821680620005e757607f821691505b60208210811415620005fe57620005fd6200063a565b5b50919050565b6200060f82620006ac565b810181811067ffffffffffffffff8211171562000631576200063062000669565b5b80604052505050565b7f4e487b7100000000000000000000000000000000000000000000000000000000600052602260045260246000fd5b7f4e487b7100000000000000000000000000000000000000000000000000000000600052604160045260246000fd5b600080fd5b600080fd5b600080fd5b600080fd5b6000601f19601f8301169050919050565b61280180620006cd6000396000f3fe608060405234801561001057600080fd5b50600436106101425760003560e01c806342842e0e116100b8578063a22cb4651161007c578063a22cb4651461039b578063b88d4fde146103b7578063bdc32be0146103d3578063c87b56dd146103f1578063e985e9c514610421578063f2fde38b1461045157610142565b806342842e0e146102d15780634f6ccce7146102ed5780636352211e1461031d57806370a082311461034d5780638da5cb5b1461037d57610142565b806317d7de7c1161010a57806317d7de7c1461021157806318160ddd1461022f57806323b872dd1461024d57806327dc297e146102695780632f745c591461028557806338bbfa50146102b557610142565b806301ffc9a714610147578063081812fc14610177578063095ea7b3146101a757806315070401146101c357806316c38b3c146101e1575b600080fd5b610161600480360381019061015c9190611e09565b61046d565b60405161016e91906120ae565b60405180910390f35b610191600480360381019061018c9190611e63565b6104d5565b60405161019e9190612047565b60405180910390f35b6101c160048036038101906101bc9190611cb5565b61055a565b005b6101cb610664565b6040516101d891906120c9565b60405180910390f35b6101fb60048036038101906101f69190611cf5565b6106f6565b60405161020891906120ae565b60405180910390f35b6102196107a7565b60405161022691906120c9565b60405180910390f35b610237610839565b60405161024491906121eb565b60405180910390f35b61026760048036038101906102629190611b9f565b610846565b005b610283600480360381019061027e9190611d22565b610869565b005b61029f600480360381019061029a9190611cb5565b6108c5565b6040516102ac91906121eb565b60405180910390f35b6102cf60048036038101906102ca9190611d7e565b61093f565b005b6102eb60048036038101906102e69190611b9f565b610944565b005b61030760048036038101906103029190611e63565b610964565b60405161031491906121eb565b60405180910390f35b61033760048036038101906103329190611e63565b61099f565b6040516103449190612047565b60405180910390f35b61036760048036038101906103629190611b32565b6109b1565b60405161037491906121eb565b60405180910390f35b610385610a70565b6040516103929190612047565b60405180910390f35b6103b560048036038101906103b09190611c75565b610a99565b005b6103d160048036038101906103cc9190611bf2565b610bcf565b005b6103db610bf5565b6040516103e891906120c9565b60405180910390f35b61040b60048036038101906104069190611e63565b610c87565b60405161041891906120c9565b60405180910390f35b61043b60048036038101906104369190611b5f565b610d3e565b60405161044891906120ae565b60405180910390f35b61046b60048036038101906104669190611b32565b610dd2565b005b600060016000837bffffffffffffffffffffffffffffffffffffffffffffffffffffffff19167bffffffffffffffffffffffffffffffffffffffffffffffffffffffff1916815260200190815260200160002060009054906101000a900460ff169050919050565b60006104e082610edc565b61051f576040517f08c379a0000000000000000000000000000000000000000000000000000000008152600401610516906121ab565b60405180910390fd5b6003600083815260200190815260200160002060009054906101000a900473ffffffffffffffffffffffffffffffffffffffff169050919050565b600061056582610f4e565b90508073ffffffffffffffffffffffffffffffffffffffff168373ffffffffffffffffffffffffffffffffffffffff1614156105d6576040517f08c379a00000000000000000000000000000000000000000000000000000000081526004016105cd9061210b565b60405180910390fd5b8073ffffffffffffffffffffffffffffffffffffffff163373ffffffffffffffffffffffffffffffffffffffff16148061061657506106158133610d3e565b5b610655576040517f08c379a000000000000000000000000000000000000000000000000000000000815260040161064c9061218b565b60405180910390fd5b61065f8383610f8b565b505050565b606060108054610673906123b9565b80601f016020809104026020016040519081016040528092919081815260200182805461069f906123b9565b80156106ec5780601f106106c1576101008083540402835291602001916106ec565b820191906000526020600020905b8154815290600101906020018083116106cf57829003601f168201915b5050505050905090565b60008060009054906101000a900473ffffffffffffffffffffffffffffffffffffffff1673ffffffffffffffffffffffffffffffffffffffff163373ffffffffffffffffffffffffffffffffffffffff1614610787576040517f08c379a000000000000000000000000000000000000000000000000000000000815260040161077e906121cb565b60405180910390fd5b61079082611044565b600060149054906101000a900460ff169050919050565b6060600f80546107b6906123b9565b80601f01602080910402602001604051908101604052809291908181526020018280546107e2906123b9565b801561082f5780601f106108045761010080835404028352916020019161082f565b820191906000526020600020905b81548152906001019060200180831161081257829003601f168201915b5050505050905090565b6000600880549050905090565b6108503382611102565b61085957600080fd5b610864838383611197565b505050565b6108c18282600067ffffffffffffffff811115610889576108886124d8565b5b6040519080825280601f01601f1916602001820160405280156108bb5781602001600182028036833780820191505090505b5061093f565b5050565b60006108d0836109b1565b82106108db57600080fd5b600660008473ffffffffffffffffffffffffffffffffffffffff1673ffffffffffffffffffffffffffffffffffffffff168152602001908152602001600020828154811061092c5761092b6124a9565b5b9060005260206000200154905092915050565b505050565b61095f83838360405180602001604052806000815250610bcf565b505050565b600061096e610839565b821061097957600080fd5b6008828154811061098d5761098c6124a9565b5b90600052602060002001549050919050565b60006109aa82610f4e565b9050919050565b60008073ffffffffffffffffffffffffffffffffffffffff163373ffffffffffffffffffffffffffffffffffffffff161415610a22576040517f08c379a0000000000000000000000000000000000000000000000000000000008152600401610a199061212b565b60405180910390fd5b610a69600460008473ffffffffffffffffffffffffffffffffffffffff1673ffffffffffffffffffffffffffffffffffffffff1681526020019081526020016000206111bb565b9050919050565b60008060009054906101000a900473ffffffffffffffffffffffffffffffffffffffff16905090565b3373ffffffffffffffffffffffffffffffffffffffff168273ffffffffffffffffffffffffffffffffffffffff161415610ad257600080fd5b80600560003373ffffffffffffffffffffffffffffffffffffffff1673ffffffffffffffffffffffffffffffffffffffff16815260200190815260200160002060008473ffffffffffffffffffffffffffffffffffffffff1673ffffffffffffffffffffffffffffffffffffffff16815260200190815260200160002060006101000a81548160ff0219169083151502179055508173ffffffffffffffffffffffffffffffffffffffff163373ffffffffffffffffffffffffffffffffffffffff167f17307eab39ab6107e8899845ad3d59bd9653f200f220920489ca2b5937696c3183604051610bc391906120ae565b60405180910390a35050565b610bda848484610846565b610be6848484846111c9565b610bef57600080fd5b50505050565b606060118054610c04906123b9565b80601f0160208091040260200160405190810160405280929190818152602001828054610c30906123b9565b8015610c7d5780601f10610c5257610100808354040283529160200191610c7d565b820191906000526020600020905b815481529060010190602001808311610c6057829003601f168201915b5050505050905090565b6060610c9282610edc565b610c9b57600080fd5b601260008381526020019081526020016000208054610cb9906123b9565b80601f0160208091040260200160405190810160405280929190818152602001828054610ce5906123b9565b8015610d325780601f10610d0757610100808354040283529160200191610d32565b820191906000526020600020905b815481529060010190602001808311610d1557829003601f168201915b50505050509050919050565b6000600560008473ffffffffffffffffffffffffffffffffffffffff1673ffffffffffffffffffffffffffffffffffffffff16815260200190815260200160002060008373ffffffffffffffffffffffffffffffffffffffff1673ffffffffffffffffffffffffffffffffffffffff16815260200190815260200160002060009054906101000a900460ff16905092915050565b60008054906101000a900473ffffffffffffffffffffffffffffffffffffffff1673ffffffffffffffffffffffffffffffffffffffff163373ffffffffffffffffffffffffffffffffffffffff1614610e60576040517f08c379a0000000000000000000000000000000000000000000000000000000008152600401610e57906121cb565b60405180910390fd5b600073ffffffffffffffffffffffffffffffffffffffff163373ffffffffffffffffffffffffffffffffffffffff161415610ed0576040517f08c379a0000000000000000000000000000000000000000000000000000000008152600401610ec79061212b565b60405180910390fd5b610ed9816112e0565b50565b6000806002600084815260200190815260200160002060009054906101000a900473ffffffffffffffffffffffffffffffffffffffff169050600073ffffffffffffffffffffffffffffffffffffffff168173ffffffffffffffffffffffffffffffffffffffff161415915050919050565b60006002600083815260200190815260200160002060009054906101000a900473ffffffffffffffffffffffffffffffffffffffff169050919050565b816003600083815260200190815260200160002060006101000a81548173ffffffffffffffffffffffffffffffffffffffff021916908373ffffffffffffffffffffffffffffffffffffffff160217905550808273ffffffffffffffffffffffffffffffffffffffff16610ffe83610f4e565b73ffffffffffffffffffffffffffffffffffffffff167f8c5be1e5ebec7d5bd14f71427d1e84f3dd0314c0f7b2291e5b200ac8c7c3b92560405160405180910390a45050565b80600060146101000a81548160ff021916908315150217905550600060149054906101000a900460ff16156110bb573373ffffffffffffffffffffffffffffffffffffffff167f62e78cea01bee320cd4e420270b5ea74000d11b0c9f74754ebdbfc544b05a25860405160405180910390a26110ff565b3373ffffffffffffffffffffffffffffffffffffffff167f5db9ee0a495bf2e6ff9c91a7834c1ba4fdd244a5e8aa4e537bd38aeae4b073aa60405160405180910390a25b50565b60008061110e8361099f565b90508073ffffffffffffffffffffffffffffffffffffffff168473ffffffffffffffffffffffffffffffffffffffff16148061117d57508373ffffffffffffffffffffffffffffffffffffffff16611165846104d5565b73ffffffffffffffffffffffffffffffffffffffff16145b8061118e575061118d8185610d3e565b5b91505092915050565b6111a28383836113c4565b6111ac83826115f9565b6111b682826117b7565b505050565b600081600001549050919050565b60006111ea8473ffffffffffffffffffffffffffffffffffffffff1661187b565b6111f757600190506112d8565b60008473ffffffffffffffffffffffffffffffffffffffff1663150b7a02338887876040518563ffffffff1660e01b81526004016112389493929190612062565b602060405180830381600087803b15801561125257600080fd5b505af1158015611266573d6000803e3d6000fd5b505050506040513d601f19601f8201168201806040525081019061128a9190611e36565b905063150b7a0260e01b7bffffffffffffffffffffffffffffffffffffffffffffffffffffffff1916817bffffffffffffffffffffffffffffffffffffffffffffffffffffffff1916149150505b949350505050565b60008060009054906101000a900473ffffffffffffffffffffffffffffffffffffffff169050816000806101000a81548173ffffffffffffffffffffffffffffffffffffffff021916908373ffffffffffffffffffffffffffffffffffffffff16021790555060008054906101000a900473ffffffffffffffffffffffffffffffffffffffff1673ffffffffffffffffffffffffffffffffffffffff168173ffffffffffffffffffffffffffffffffffffffff167f8be0079c531659141344cd1fd0a4f28419497f9722a3daafe3b4186f6b6457e060405160405180910390a35050565b60006113cf8261099f565b90508073ffffffffffffffffffffffffffffffffffffffff168473ffffffffffffffffffffffffffffffffffffffff161461143f576040517f08c379a00000000000000000000000000000000000000000000000000000000081526004016114369061216b565b60405180910390fd5b600073ffffffffffffffffffffffffffffffffffffffff168373ffffffffffffffffffffffffffffffffffffffff1614156114af576040517f08c379a00000000000000000000000000000000000000000000000000000000081526004016114a69061214b565b60405180910390fd5b6114b88261188e565b6114ff600460008373ffffffffffffffffffffffffffffffffffffffff1673ffffffffffffffffffffffffffffffffffffffff16815260200190815260200160002061194c565b611546600460008573ffffffffffffffffffffffffffffffffffffffff1673ffffffffffffffffffffffffffffffffffffffff1681526020019081526020016000206119a8565b826002600084815260200190815260200160002060006101000a81548173ffffffffffffffffffffffffffffffffffffffff021916908373ffffffffffffffffffffffffffffffffffffffff160217905550818373ffffffffffffffffffffffffffffffffffffffff168573ffffffffffffffffffffffffffffffffffffffff167fddf252ad1be2c89b69c2b068fc378daa952ba7f163c4a11628f55a4df523b3ef60405160405180910390a450505050565b60006116516001600660008673ffffffffffffffffffffffffffffffffffffffff1673ffffffffffffffffffffffffffffffffffffffff168152602001908152602001600020805490506119be90919063ffffffff16565b905060006007600084815260200190815260200160002054905081811461174c576000600660008673ffffffffffffffffffffffffffffffffffffffff1673ffffffffffffffffffffffffffffffffffffffff16815260200190815260200160002083815481106116c5576116c46124a9565b5b9060005260206000200154905080600660008773ffffffffffffffffffffffffffffffffffffffff1673ffffffffffffffffffffffffffffffffffffffff1681526020019081526020016000208381548110611724576117236124a9565b5b9060005260206000200181905550816007600083815260200190815260200160002081905550505b600660008573ffffffffffffffffffffffffffffffffffffffff1673ffffffffffffffffffffffffffffffffffffffff16815260200190815260200160002080548061179b5761179a61247a565b5b6001900381819060005260206000200160009055905550505050565b600660008373ffffffffffffffffffffffffffffffffffffffff1673ffffffffffffffffffffffffffffffffffffffff168152602001908152602001600020805490506007600083815260200190815260200160002081905550600660008373ffffffffffffffffffffffffffffffffffffffff1673ffffffffffffffffffffffffffffffffffffffff1681526020019081526020016000208190806001815401808255809150506001900390600052602060002001600090919091909150555050565b600080823b905060008111915050919050565b600073ffffffffffffffffffffffffffffffffffffffff166003600083815260200190815260200160002060009054906101000a900473ffffffffffffffffffffffffffffffffffffffff1673ffffffffffffffffffffffffffffffffffffffff16146119495760006003600083815260200190815260200160002060006101000a81548173ffffffffffffffffffffffffffffffffffffffff021916908373ffffffffffffffffffffffffffffffffffffffff1602179055505b50565b60008160000154905060008111611998576040517f08c379a000000000000000000000000000000000000000000000000000000000815260040161198f906120eb565b60405180910390fd5b6001810382600001819055505050565b6001816000016000828254019250508190555050565b600081836119cc91906122c5565b905092915050565b60006119e76119e28461222b565b612206565b905082815260208101848484011115611a0357611a0261250c565b5b611a0e848285612377565b509392505050565b6000611a29611a248461225c565b612206565b905082815260208101848484011115611a4557611a4461250c565b5b611a50848285612377565b509392505050565b600081359050611a6781612758565b92915050565b600081359050611a7c8161276f565b92915050565b600081359050611a9181612786565b92915050565b600081359050611aa68161279d565b92915050565b600081519050611abb8161279d565b92915050565b600082601f830112611ad657611ad5612507565b5b8135611ae68482602086016119d4565b91505092915050565b600082601f830112611b0457611b03612507565b5b8135611b14848260208601611a16565b91505092915050565b600081359050611b2c816127b4565b92915050565b600060208284031215611b4857611b47612516565b5b6000611b5684828501611a58565b91505092915050565b60008060408385031215611b7657611b75612516565b5b6000611b8485828601611a58565b9250506020611b9585828601611a58565b9150509250929050565b600080600060608486031215611bb857611bb7612516565b5b6000611bc686828701611a58565b9350506020611bd786828701611a58565b9250506040611be886828701611b1d565b9150509250925092565b60008060008060808587031215611c0c57611c0b612516565b5b6000611c1a87828801611a58565b9450506020611c2b87828801611a58565b9350506040611c3c87828801611b1d565b925050606085013567ffffffffffffffff811115611c5d57611c5c612511565b5b611c6987828801611ac1565b91505092959194509250565b60008060408385031215611c8c57611c8b612516565b5b6000611c9a85828601611a58565b9250506020611cab85828601611a6d565b9150509250929050565b60008060408385031215611ccc57611ccb612516565b5b6000611cda85828601611a58565b9250506020611ceb85828601611b1d565b9150509250929050565b600060208284031215611d0b57611d0a612516565b5b6000611d1984828501611a6d565b91505092915050565b60008060408385031215611d3957611d38612516565b5b6000611d4785828601611a82565b925050602083013567ffffffffffffffff811115611d6857611d67612511565b5b611d7485828601611aef565b9150509250929050565b600080600060608486031215611d9757611d96612516565b5b6000611da586828701611a82565b935050602084013567ffffffffffffffff811115611dc657611dc5612511565b5b611dd286828701611aef565b925050604084013567ffffffffffffffff811115611df357611df2612511565b5b611dff86828701611ac1565b9150509250925092565b600060208284031215611e1f57611e1e612516565b5b6000611e2d84828501611a97565b91505092915050565b600060208284031215611e4c57611e4b612516565b5b6000611e5a84828501611aac565b91505092915050565b600060208284031215611e7957611e78612516565b5b6000611e8784828501611b1d565b91505092915050565b611e99816122f9565b82525050565b611ea88161230b565b82525050565b6000611eb98261228d565b611ec381856122a3565b9350611ed3818560208601612386565b611edc8161251b565b840191505092915050565b6000611ef282612298565b611efc81856122b4565b9350611f0c818560208601612386565b611f158161251b565b840191505092915050565b6000611f2d601b836122b4565b9150611f388261252c565b602082019050919050565b6000611f506032836122b4565b9150611f5b82612555565b604082019050919050565b6000611f736039836122b4565b9150611f7e826125a4565b604082019050919050565b6000611f96602f836122b4565b9150611fa1826125f3565b604082019050919050565b6000611fb9602c836122b4565b9150611fc482612642565b604082019050919050565b6000611fdc602c836122b4565b9150611fe782612691565b604082019050919050565b6000611fff6014836122b4565b915061200a826126e0565b602082019050919050565b6000612022602f836122b4565b915061202d82612709565b604082019050919050565b6120418161236d565b82525050565b600060208201905061205c6000830184611e90565b92915050565b60006080820190506120776000830187611e90565b6120846020830186611e90565b6120916040830185612038565b81810360608301526120a38184611eae565b905095945050505050565b60006020820190506120c36000830184611e9f565b92915050565b600060208201905081810360008301526120e38184611ee7565b905092915050565b6000602082019050818103600083015261210481611f20565b9050919050565b6000602082019050818103600083015261212481611f43565b9050919050565b6000602082019050818103600083015261214481611f66565b9050919050565b6000602082019050818103600083015261216481611f89565b9050919050565b6000602082019050818103600083015261218481611fac565b9050919050565b600060208201905081810360008301526121a481611fcf565b9050919050565b600060208201905081810360008301526121c481611ff2565b9050919050565b600060208201905081810360008301526121e481612015565b9050919050565b60006020820190506122006000830184612038565b92915050565b6000612210612221565b905061221c82826123eb565b919050565b6000604051905090565b600067ffffffffffffffff821115612246576122456124d8565b5b61224f8261251b565b9050602081019050919050565b600067ffffffffffffffff821115612277576122766124d8565b5b6122808261251b565b9050602081019050919050565b600081519050919050565b600081519050919050565b600082825260208201905092915050565b600082825260208201905092915050565b60006122d08261236d565b91506122db8361236d565b9250828210156122ee576122ed61241c565b5b828203905092915050565b60006123048261234d565b9050919050565b60008115159050919050565b6000819050919050565b60007fffffffff0000000000000000000000000000000000000000000000000000000082169050919050565b600073ffffffffffffffffffffffffffffffffffffffff82169050919050565b6000819050919050565b82818337600083830152505050565b60005b838110156123a4578082015181840152602081019050612389565b838111156123b3576000848401525b50505050565b600060028204905060018216806123d157607f821691505b602082108114156123e5576123e461244b565b5b50919050565b6123f48261251b565b810181811067ffffffffffffffff82111715612413576124126124d8565b5b80604052505050565b7f4e487b7100000000000000000000000000000000000000000000000000000000600052601160045260246000fd5b7f4e487b7100000000000000000000000000000000000000000000000000000000600052602260045260246000fd5b7f4e487b7100000000000000000000000000000000000000000000000000000000600052603160045260246000fd5b7f4e487b7100000000000000000000000000000000000000000000000000000000600052603260045260246000fd5b7f4e487b7100000000000000000000000000000000000000000000000000000000600052604160045260246000fd5b600080fd5b600080fd5b600080fd5b600080fd5b6000601f19601f8301169050919050565b7f436f756e7465723a2064656372656d656e74206f766572666c6f770000000000600082015250565b7f676976656e2061646472657373206d757374206e6f7420626520746865206f7760008201527f6e6572206f662074686520746f6b656e49640000000000000000000000000000602082015250565b7f6f6e6c79207265616c206164647265737365732061726520617574686f72697a60008201527f656420746f20706572666f726d207468697320616374696f6e00000000000000602082015250565b7f746f6b656e206973206265696e67207472616e73666572656420746f20616e2060008201527f696e76616c696420616464726573730000000000000000000000000000000000602082015250565b7f6f6e6c79206f776e657220697320617574686f72697a656420746f207065726660008201527f6f726d207472616e736665720000000000000000000000000000000000000000602082015250565b7f63616c6c6572206973206e656974686572206f776e6572206e6f72206170707260008201527f6f76656420666f7220616c6c0000000000000000000000000000000000000000602082015250565b7f746f6b656e20646f6573206e6f74206578697374000000000000000000000000600082015250565b7f6f6e6c79206f776e657220697320617574686f72697a656420746f207065726660008201527f6f726d207468697320616374696f6e0000000000000000000000000000000000602082015250565b612761816122f9565b811461276c57600080fd5b50565b6127788161230b565b811461278357600080fd5b50565b61278f81612317565b811461279a57600080fd5b50565b6127a681612321565b81146127b157600080fd5b50565b6127bd8161236d565b81146127c857600080fd5b5056fea2646970667358221220775ae1046b282cd89e34f9ac4ca6cb90ed2cfa1b2af64841dbd0d39f5a4ed77864736f6c63430008060033",
  "immutableReferences": {},
  "source": "// SPDX-License-Identifier: MIT\npragma solidity ^0.8.6;\n\nimport '@openzeppelin/contracts/utils/Address.sol';\nimport '@openzeppelin/contracts/utils/Counters.sol';\nimport '@openzeppelin/contracts/utils/math/SafeMath.sol';\nimport '@openzeppelin/contracts/token/ERC721/IERC721Receiver.sol';\nimport \"./Oraclize.sol\";\n\n/// @author Abhinav Mishra\n\n/********************************************* */\n/* Ownable Smart Contract                      */\n/********************************************* */\nabstract contract Ownable {\n    address private _owner;\n\n    event OwnershipTransferred(address indexed previousOwner, address indexed newOwner);\n\n    /********************************************* */\n    /* Function Modifiers                          */\n    /********************************************* */\n    modifier onlyOwner() {\n        require(msg.sender == _owner, \"only owner is authorized to perform this action\");\n        _;\n    }\n\n    modifier onlyRealAddress() {\n        require(msg.sender != address(0), \"only real addresses are authorized to perform this action\");\n        _;\n    }\n\n    /********************************************* */\n    /* Constructor                                 */\n    /********************************************* */\n    constructor() {\n        _setOwner(msg.sender);\n    }\n\n    /********************************************* */\n    /* Public Functions                            */\n    /********************************************* */    \n    function transferOwnership(address newOwner) public onlyOwner onlyRealAddress {\n        _setOwner(newOwner);\n    }\n\n    function owner() public view returns(address) {\n        return _owner;\n    }\n\n    /********************************************* */\n    /* Private Functions                           */\n    /********************************************* */    \n    function _setOwner(address newOwner) private {\n        address oldOwner = _owner;\n        _owner = newOwner;\n        emit OwnershipTransferred(oldOwner, _owner);\n    }\n}\n\n/********************************************* */\n/* Pausable Smart Contract                     */\n/********************************************* */\nabstract contract Pausable is Ownable {\n    bool private _paused;\n\n    event Paused(address indexed owner);\n    event Unpaused(address indexed owner);\n\n    /********************************************* */\n    /* Function Modifiers                          */\n    /********************************************* */\n    modifier whenNotPaused() {\n        require(!_paused, \"must not be paused\");\n        _;\n    }\n\n    modifier whenPaused() {\n        require(_paused, \"must be paused\");\n        _;\n    }\n\n    /********************************************* */\n    /* Constructor                                 */\n    /********************************************* */\n    constructor() {\n        _setPaused(false);\n    }\n\n    /********************************************* */\n    /* Public Functions                            */\n    /********************************************* */\n    function setPaused(bool pause) public onlyOwner returns(bool) {\n        _setPaused(pause);\n        return(_paused);\n    }\n\n    /********************************************* */\n    /* Private Functions                           */\n    /********************************************* */\n    function _setPaused(bool pause) private {\n        _paused = pause;\n\n        if(_paused) {\n            emit Paused(msg.sender);\n        } else {\n            emit Unpaused(msg.sender);\n        }\n    }\n}\n\nabstract contract ERC165 {\n    bytes4 private constant _INTERFACE_ID_ERC165 = 0x01ffc9a7;\n    /*\n     * 0x01ffc9a7 ===\n     *     bytes4(keccak256('supportsInterface(bytes4)'))\n     */\n\n    /**\n     * @dev a mapping of interface id to whether or not it's supported\n     */\n    mapping(bytes4 => bool) private _supportedInterfaces;\n\n    /**\n     * @dev A contract implementing SupportsInterfaceWithLookup\n     * implement ERC165 itself\n     */\n    constructor () {\n        _registerInterface(_INTERFACE_ID_ERC165);\n    }\n\n    /**\n     * @dev implement supportsInterface(bytes4) using a lookup table\n     */\n    function supportsInterface(bytes4 interfaceId) external view returns (bool) {\n        return _supportedInterfaces[interfaceId];\n    }\n\n    /**\n     * @dev internal method for registering an interface\n     */\n    function _registerInterface(bytes4 interfaceId) internal {\n        require(interfaceId != 0xffffffff);\n        _supportedInterfaces[interfaceId] = true;\n    }\n}\n\nabstract contract ERC721 is Pausable, ERC165 {\n    using SafeMath for uint256;\n    using Address  for address;\n    using Counters for Counters.Counter;\n\n    event Transfer      (address indexed from, address indexed to, uint256 indexed tokenId);\n    event Approval      (address indexed owner, address indexed approved, uint256 indexed tokenId);\n    event ApprovalForAll(address indexed owner, address indexed operator, bool approved);\n\n    // Equals to `bytes4(keccak256(\"onERC721Received(address,address,uint256,bytes)\"))`\n    // which can be also obtained as `IERC721Receiver(0).onERC721Received.selector`\n    bytes4 private constant _ERC721_RECEIVED = 0x150b7a02;\n\n    // Mapping from token ID to owner\n    mapping (uint256 => address) private _tokenOwner;\n\n    // Mapping from token ID to approved address\n    mapping (uint256 => address) private _tokenApprovals;\n\n    // Mapping from owner to number of owned token\n    mapping (address => Counters.Counter) private _ownedTokensCount;\n\n    // Mapping from owner to operator approvals\n    mapping (address => mapping (address => bool)) private _operatorApprovals;\n\n    bytes4 private constant _INTERFACE_ID_ERC721 = 0x80ac58cd;\n\n    constructor() {\n        // register the supported interfaces to conform to ERC721 via ERC165\n        _registerInterface(_INTERFACE_ID_ERC721);\n    }\n\n    \n     // @dev Returns the number of tokens in `owner`'s account.\n    function balanceOf(address owner) public view onlyRealAddress returns (uint256) {\n        return _ownedTokensCount[owner].current();\n    }\n\n    // @dev Returns the owner of `tokenId`\n    function ownerOf(uint256 tokenId) public view returns (address) {\n        return _ownerOf(tokenId);\n    }\n\n    // @dev Approves another address to transfer the given token ID\n    function approve(address to, uint256 tokenId) public {\n        address owner = _ownerOf(tokenId);\n        require(to != owner, \"given address must not be the owner of the tokenId\");\n\n        require(\n            msg.sender == owner || isApprovedForAll(owner, msg.sender),\n            \"caller is neither owner nor approved for all\"\n        );\n\n        _approve(to, tokenId);\n    }\n\n    function getApproved(uint256 tokenId) public view returns (address) {\n        require(_exists(tokenId), \"token does not exist\");\n\n        return _tokenApprovals[tokenId];\n    }\n\n    /**\n     * @dev Sets or unsets the approval of a given operator\n     * An operator is allowed to transfer all tokens of the sender on their behalf\n     * @param to operator address to set the approval\n     * @param approved representing the status of the approval to be set\n     */\n    function setApprovalForAll(address to, bool approved) public {\n        require(to != msg.sender);\n        _operatorApprovals[msg.sender][to] = approved;\n        emit ApprovalForAll(msg.sender, to, approved);\n    }\n\n    /**\n     * @dev Tells whether an operator is approved by a given owner\n     * @param owner owner address which you want to query the approval of\n     * @param operator operator address which you want to query the approval of\n     * @return bool whether the given operator is approved by the given owner\n     */\n    function isApprovedForAll(address owner, address operator) public view returns (bool) {\n        return _operatorApprovals[owner][operator];\n    }\n\n    function transferFrom(address from, address to, uint256 tokenId) public {\n        require(_isApprovedOrOwner(msg.sender, tokenId));\n\n        _transferFrom(from, to, tokenId);\n    }\n\n    function safeTransferFrom(address from, address to, uint256 tokenId) public {\n        safeTransferFrom(from, to, tokenId, \"\");\n    }\n\n    function safeTransferFrom(address from, address to, uint256 tokenId, bytes memory _data) public {\n        transferFrom(from, to, tokenId);\n        require(_checkOnERC721Received(from, to, tokenId, _data));\n    }\n\n    /**\n     * @dev Returns whether the specified token exists\n     * @param tokenId uint256 ID of the token to query the existence of\n     * @return bool whether the token exists\n     */\n    function _exists(uint256 tokenId) internal view returns (bool) {\n        address owner = _tokenOwner[tokenId];\n        return owner != address(0);\n    }\n\n    /**\n     * @dev Returns whether the given spender can transfer a given token ID\n     * @param spender address of the spender to query\n     * @param tokenId uint256 ID of the token to be transferred\n     * @return bool whether the msg.sender is approved for the given token ID,\n     * is an operator of the owner, or is the owner of the token\n     */\n    function _isApprovedOrOwner(address spender, uint256 tokenId) internal view returns (bool) {\n        address owner = ownerOf(tokenId);\n        return (spender == owner || getApproved(tokenId) == spender || isApprovedForAll(owner, spender));\n    }\n\n    // @dev Internal function to mint a new token\n    // TIP: remember the functions to use for Counters. you can refresh yourself with the link above\n    function _mint(address to, uint256 tokenId) virtual internal {\n        require(!_exists(tokenId), \"tokenId already exists\");\n        require(to != address(0), \"given address is invalid\");\n        \n        _tokenOwner[tokenId] = to;\n        _ownedTokensCount[to].increment();\n\n        emit Transfer(address(0), to, tokenId);\n    }\n\n    // @dev Internal function to transfer ownership of a given token ID to another address.\n    // TIP: remember the functions to use for Counters. you can refresh yourself with the link above\n    function _transferFrom(address from, address to, uint256 tokenId) virtual internal {\n        address owner = ownerOf(tokenId);\n\n        require(from == owner, \"only owner is authorized to perform transfer\");\n        require(to != address(0), \"token is being transfered to an invalid address\");\n        \n        _clearApproval(tokenId);\n\n        _ownedTokensCount[owner].decrement();\n        _ownedTokensCount[to].increment();\n        _tokenOwner[tokenId] = to;\n\n        emit Transfer(from, to, tokenId);\n    }\n\n    /**\n     * @dev Internal function to invoke `onERC721Received` on a target address\n     * The call is not executed if the target address is not a contract\n     * @param from address representing the previous owner of the given token ID\n     * @param to target address that will receive the tokens\n     * @param tokenId uint256 ID of the token to be transferred\n     * @param _data bytes optional data to send along with the call\n     * @return bool whether the call correctly returned the expected magic value\n     */\n    function _checkOnERC721Received(address from, address to, uint256 tokenId, bytes memory _data)\n        internal returns (bool)\n    {\n        if (!to.isContract()) {\n            return true;\n        }\n\n        bytes4 retval = IERC721Receiver(to).onERC721Received(msg.sender, from, tokenId, _data);\n        return (retval == _ERC721_RECEIVED);\n    }\n\n    // @dev Private function to clear current approval of a given token ID\n    function _clearApproval(uint256 tokenId) private {\n        if (_tokenApprovals[tokenId] != address(0)) {\n            _tokenApprovals[tokenId] = address(0);\n        }\n    }\n\n    /**\n     * @dev Approve `to` to operate on `tokenId`\n     *\n     * Emits an {Approval} event.\n     */\n    function _approve(address to, uint256 tokenId) private {\n        _tokenApprovals[tokenId] = to;\n\n        emit Approval(_ownerOf(tokenId), to, tokenId);\n    }\n\n    // @dev {Private} Returns the owner of `tokenId`\n    function _ownerOf(uint256 tokenId) private view returns(address) {\n        return _tokenOwner[tokenId];\n    }\n}\n\nabstract contract ERC721Enumerable is ERC165, ERC721 {\n    using SafeMath for uint256;\n    \n    // Mapping from owner to list of owned token IDs\n    mapping(address => uint256[]) private _ownedTokens;\n\n    // Mapping from token ID to index of the owner tokens list\n    mapping(uint256 => uint256) private _ownedTokensIndex;\n\n    // Array with all token ids, used for enumeration\n    uint256[] private _allTokens;\n\n    // Mapping from token id to position in the allTokens array\n    mapping(uint256 => uint256) private _allTokensIndex;\n\n    bytes4 private constant _INTERFACE_ID_ERC721_ENUMERABLE = 0x780e9d63;\n    /*\n     * 0x780e9d63 ===\n     *     bytes4(keccak256('totalSupply()')) ^\n     *     bytes4(keccak256('tokenOfOwnerByIndex(address,uint256)')) ^\n     *     bytes4(keccak256('tokenByIndex(uint256)'))\n     */\n\n    /**\n     * @dev Constructor function\n     */\n    constructor() {\n        // register the supported interface to conform to ERC721Enumerable via ERC165\n        _registerInterface(_INTERFACE_ID_ERC721_ENUMERABLE);\n    }\n\n    /**\n     * @dev Gets the token ID at a given index of the tokens list of the requested owner\n     * @param owner address owning the tokens list to be accessed\n     * @param index uint256 representing the index to be accessed of the requested tokens list\n     * @return uint256 token ID at the given index of the tokens list owned by the requested address\n     */\n    function tokenOfOwnerByIndex(address owner, uint256 index) public view returns (uint256) {\n        require(index < balanceOf(owner));\n        return _ownedTokens[owner][index];\n    }\n\n    /**\n     * @dev Gets the total amount of tokens stored by the contract\n     * @return uint256 representing the total amount of tokens\n     */\n    function totalSupply() public view returns (uint256) {\n        return _allTokens.length;\n    }\n\n    /**\n     * @dev Gets the token ID at a given index of all the tokens in this contract\n     * Reverts if the index is greater or equal to the total number of tokens\n     * @param index uint256 representing the index to be accessed of the tokens list\n     * @return uint256 token ID at the given index of the tokens list\n     */\n    function tokenByIndex(uint256 index) public view returns (uint256) {\n        require(index < totalSupply());\n        return _allTokens[index];\n    }\n\n    /**\n     * @dev Internal function to transfer ownership of a given token ID to another address.\n     * As opposed to transferFrom, this imposes no restrictions on msg.sender.\n     * @param from current owner of the token\n     * @param to address to receive the ownership of the given token ID\n     * @param tokenId uint256 ID of the token to be transferred\n     */\n    function _transferFrom(address from, address to, uint256 tokenId) override internal {\n        super._transferFrom(from, to, tokenId);\n\n        _removeTokenFromOwnerEnumeration(from, tokenId);\n\n        _addTokenToOwnerEnumeration(to, tokenId);\n    }\n\n    /**\n     * @dev Internal function to mint a new token\n     * Reverts if the given token ID already exists\n     * @param to address the beneficiary that will own the minted token\n     * @param tokenId uint256 ID of the token to be minted\n     */\n    function _mint(address to, uint256 tokenId) override internal {\n        super._mint(to, tokenId);\n\n        _addTokenToOwnerEnumeration(to, tokenId);\n\n        _addTokenToAllTokensEnumeration(tokenId);\n    }\n\n    /**\n     * @dev Gets the list of token IDs of the requested owner\n     * @param owner address owning the tokens\n     * @return uint256[] List of token IDs owned by the requested address\n     */\n    function _tokensOfOwner(address owner) internal view returns (uint256[] storage) {\n        return _ownedTokens[owner];\n    }\n\n    /**\n     * @dev Private function to add a token to this extension's ownership-tracking data structures.\n     * @param to address representing the new owner of the given token ID\n     * @param tokenId uint256 ID of the token to be added to the tokens list of the given address\n     */\n    function _addTokenToOwnerEnumeration(address to, uint256 tokenId) private {\n        _ownedTokensIndex[tokenId] = _ownedTokens[to].length;\n        _ownedTokens[to].push(tokenId);\n    }\n\n    /**\n     * @dev Private function to add a token to this extension's token tracking data structures.\n     * @param tokenId uint256 ID of the token to be added to the tokens list\n     */\n    function _addTokenToAllTokensEnumeration(uint256 tokenId) private {\n        _allTokensIndex[tokenId] = _allTokens.length;\n        _allTokens.push(tokenId);\n    }\n\n    /**\n     * @dev Private function to remove a token from this extension's ownership-tracking data structures. Note that\n     * while the token is not assigned a new owner, the _ownedTokensIndex mapping is _not_ updated: this allows for\n     * gas optimizations e.g. when performing a transfer operation (avoiding double writes).\n     * This has O(1) time complexity, but alters the order of the _ownedTokens array.\n     * @param from address representing the previous owner of the given token ID\n     * @param tokenId uint256 ID of the token to be removed from the tokens list of the given address\n     */\n    function _removeTokenFromOwnerEnumeration(address from, uint256 tokenId) private {\n        // To prevent a gap in from's tokens array, we store the last token in the index of the token to delete, and\n        // then delete the last slot (swap and pop).\n\n        uint256 lastTokenIndex = _ownedTokens[from].length.sub(1);\n        uint256 tokenIndex = _ownedTokensIndex[tokenId];\n\n        // When the token to delete is the last token, the swap operation is unnecessary\n        if (tokenIndex != lastTokenIndex) {\n            uint256 lastTokenId = _ownedTokens[from][lastTokenIndex];\n\n            _ownedTokens[from][tokenIndex] = lastTokenId; // Move the last token to the slot of the to-delete token\n            _ownedTokensIndex[lastTokenId] = tokenIndex; // Update the moved token's index\n        }\n\n        // This also deletes the contents at the last position of the array\n        _ownedTokens[from].pop();\n    }\n\n    /**\n     * @dev Private function to remove a token from this extension's token tracking data structures.\n     * This has O(1) time complexity, but alters the order of the _allTokens array.\n     * @param tokenId uint256 ID of the token to be removed from the tokens list\n     */\n    function _removeTokenFromAllTokensEnumeration(uint256 tokenId) private {\n        // To prevent a gap in the tokens array, we store the last token in the index of the token to delete, and\n        // then delete the last slot (swap and pop).\n\n        uint256 lastTokenIndex = _allTokens.length.sub(1);\n        uint256 tokenIndex = _allTokensIndex[tokenId];\n\n        // When the token to delete is the last token, the swap operation is unnecessary. However, since this occurs so\n        // rarely (when the last minted token is burnt) that we still do the swap here to avoid the gas cost of adding\n        // an 'if' statement (like in _removeTokenFromOwnerEnumeration)\n        uint256 lastTokenId = _allTokens[lastTokenIndex];\n\n        _allTokens[tokenIndex] = lastTokenId; // Move the last token to the slot of the to-delete token\n        _allTokensIndex[lastTokenId] = tokenIndex; // Update the moved token's index\n\n        // This also deletes the contents at the last position of the array\n        _allTokens.pop();\n        _allTokensIndex[tokenId] = 0;\n    }\n}\n\ncontract ERC721Metadata is ERC721Enumerable, usingOraclize {\n    using Buffer for uint256;\n\n    string private _name;\n    string private _symbol;\n    string private _baseTokenURI;\n\n    mapping(uint256 => string) private _tokenURIs;\n\n    bytes4 private constant _INTERFACE_ID_ERC721_METADATA = 0x5b5e139f;\n    /*\n     * 0x5b5e139f ===\n     *     bytes4(keccak256('name()')) ^\n     *     bytes4(keccak256('symbol()')) ^\n     *     bytes4(keccak256('tokenURI(uint256)'))\n     */\n\n    constructor (string memory name, string memory symbol, string memory baseTokenURI) {\n        _name         = name;\n        _symbol       = symbol;\n        _baseTokenURI = baseTokenURI;\n\n        _registerInterface(_INTERFACE_ID_ERC721_METADATA);\n    }\n\n    // @dev Returns token name\n    function getName() external view returns(string memory) {\n        return _name;\n    }\n\n    // @dev Returns token symbol\n    function getSymbol() external view returns(string memory) {\n        return _symbol;\n    }\n\n    // @dev Returns token base URI\n    function getBaseTokenURI() external view returns(string memory) {\n        return _baseTokenURI;\n    }\n\n    function tokenURI(uint256 tokenId) external view returns (string memory) {\n        require(_exists(tokenId));\n        return _tokenURIs[tokenId];\n    }\n\n    function setTokenURI(uint256 tokenId) internal {\n        require(_exists(tokenId));\n\n        _tokenURIs[tokenId] = super.strConcat(_baseTokenURI, super.uint2str(tokenId));\n    }\n}\n\n//  TODO's: Create CustomERC721Token contract that inherits from the ERC721Metadata contract. You can name this contract as you please\n//  1) Pass in appropriate values for the inherited ERC721Metadata contract\n//      - make the base token uri: https://s3-us-west-2.amazonaws.com/udacity-blockchain/capstone/\n//  2) create a public mint() that does the following:\n//      -can only be executed by the contract owner\n//      -takes in a 'to' address, tokenId, and tokenURI as parameters\n//      -returns a true boolean upon completion of the function\n//      -calls the superclass mint and setTokenURI functions\ncontract Casa is ERC721Metadata(\n        \"Casa\", \n        \"CASA\", \n        \"https://s3-us-west-2.amazonaws.com/udacity-blockchain/capstone\"\n    ) \n{\n    function mint(\n        address to, \n        uint256 tokenId\n    ) \n        external \n        onlyOwner\n        returns(bool)\n    {\n        super._mint(to, tokenId);\n        super.setTokenURI(tokenId);\n        return(true);\n    }\n}\n",
  "sourcePath": "/Users/abhinavmishra/udacity/Blockchain-Capstone/eth-contracts/contracts/ERC721Mintable.sol",
  "compiler": {
    "name": "solc",
    "version": "0.8.6+commit.11564f7e.Emscripten.clang"
  },
  "schemaVersion": "3.4.1",
  "updatedAt": "2021-06-26T15:19:59.748Z",
  "devdoc": {
    "kind": "dev",
    "methods": {
      "isApprovedForAll(address,address)": {
        "details": "Tells whether an operator is approved by a given owner",
        "params": {
          "operator": "operator address which you want to query the approval of",
          "owner": "owner address which you want to query the approval of"
        },
        "returns": {
          "_0": "bool whether the given operator is approved by the given owner"
        }
      },
      "setApprovalForAll(address,bool)": {
        "details": "Sets or unsets the approval of a given operator An operator is allowed to transfer all tokens of the sender on their behalf",
        "params": {
          "approved": "representing the status of the approval to be set",
          "to": "operator address to set the approval"
        }
      },
      "supportsInterface(bytes4)": {
        "details": "implement supportsInterface(bytes4) using a lookup table"
      },
      "tokenByIndex(uint256)": {
        "details": "Gets the token ID at a given index of all the tokens in this contract Reverts if the index is greater or equal to the total number of tokens",
        "params": {
          "index": "uint256 representing the index to be accessed of the tokens list"
        },
        "returns": {
          "_0": "uint256 token ID at the given index of the tokens list"
        }
      },
      "tokenOfOwnerByIndex(address,uint256)": {
        "details": "Gets the token ID at a given index of the tokens list of the requested owner",
        "params": {
          "index": "uint256 representing the index to be accessed of the requested tokens list",
          "owner": "address owning the tokens list to be accessed"
        },
        "returns": {
          "_0": "uint256 token ID at the given index of the tokens list owned by the requested address"
        }
      },
      "totalSupply()": {
        "details": "Gets the total amount of tokens stored by the contract",
        "returns": {
          "_0": "uint256 representing the total amount of tokens"
        }
      }
    },
    "version": 1
  },
  "userdoc": {
    "kind": "user",
    "methods": {},
    "version": 1
  }
}